{
  "contractName": "CFP",
  "abi": [
    {
      "inputs": [],
      "stateMutability": "nonpayable",
      "type": "constructor"
    },
    {
      "anonymous": false,
      "inputs": [
        {
          "indexed": true,
          "internalType": "address",
          "name": "owner",
          "type": "address"
        },
        {
          "indexed": true,
          "internalType": "address",
          "name": "spender",
          "type": "address"
        },
        {
          "indexed": false,
          "internalType": "uint256",
          "name": "value",
          "type": "uint256"
        }
      ],
      "name": "Approval",
      "type": "event"
    },
    {
      "anonymous": false,
      "inputs": [
        {
          "indexed": true,
          "internalType": "address",
          "name": "from",
          "type": "address"
        },
        {
          "indexed": true,
          "internalType": "address",
          "name": "to",
          "type": "address"
        },
        {
          "indexed": false,
          "internalType": "uint256",
          "name": "value",
          "type": "uint256"
        }
      ],
      "name": "Transfer",
      "type": "event"
    },
    {
      "inputs": [
        {
          "internalType": "address",
          "name": "owner",
          "type": "address"
        },
        {
          "internalType": "address",
          "name": "spender",
          "type": "address"
        }
      ],
      "name": "allowance",
      "outputs": [
        {
          "internalType": "uint256",
          "name": "",
          "type": "uint256"
        }
      ],
      "stateMutability": "view",
      "type": "function"
    },
    {
      "inputs": [
        {
          "internalType": "address",
          "name": "spender",
          "type": "address"
        },
        {
          "internalType": "uint256",
          "name": "amount",
          "type": "uint256"
        }
      ],
      "name": "approve",
      "outputs": [
        {
          "internalType": "bool",
          "name": "",
          "type": "bool"
        }
      ],
      "stateMutability": "nonpayable",
      "type": "function"
    },
    {
      "inputs": [
        {
          "internalType": "address",
          "name": "account",
          "type": "address"
        }
      ],
      "name": "balanceOf",
      "outputs": [
        {
          "internalType": "uint256",
          "name": "",
          "type": "uint256"
        }
      ],
      "stateMutability": "view",
      "type": "function"
    },
    {
      "inputs": [],
      "name": "decimals",
      "outputs": [
        {
          "internalType": "uint8",
          "name": "",
          "type": "uint8"
        }
      ],
      "stateMutability": "view",
      "type": "function"
    },
    {
      "inputs": [
        {
          "internalType": "address",
          "name": "spender",
          "type": "address"
        },
        {
          "internalType": "uint256",
          "name": "subtractedValue",
          "type": "uint256"
        }
      ],
      "name": "decreaseAllowance",
      "outputs": [
        {
          "internalType": "bool",
          "name": "",
          "type": "bool"
        }
      ],
      "stateMutability": "nonpayable",
      "type": "function"
    },
    {
      "inputs": [
        {
          "internalType": "address",
          "name": "spender",
          "type": "address"
        },
        {
          "internalType": "uint256",
          "name": "addedValue",
          "type": "uint256"
        }
      ],
      "name": "increaseAllowance",
      "outputs": [
        {
          "internalType": "bool",
          "name": "",
          "type": "bool"
        }
      ],
      "stateMutability": "nonpayable",
      "type": "function"
    },
    {
      "inputs": [],
      "name": "name",
      "outputs": [
        {
          "internalType": "string",
          "name": "",
          "type": "string"
        }
      ],
      "stateMutability": "view",
      "type": "function"
    },
    {
      "inputs": [],
      "name": "symbol",
      "outputs": [
        {
          "internalType": "string",
          "name": "",
          "type": "string"
        }
      ],
      "stateMutability": "view",
      "type": "function"
    },
    {
      "inputs": [],
      "name": "totalSupply",
      "outputs": [
        {
          "internalType": "uint256",
          "name": "",
          "type": "uint256"
        }
      ],
      "stateMutability": "view",
      "type": "function"
    },
    {
      "inputs": [
        {
          "internalType": "address",
          "name": "to",
          "type": "address"
        },
        {
          "internalType": "uint256",
          "name": "amount",
          "type": "uint256"
        }
      ],
      "name": "transfer",
      "outputs": [
        {
          "internalType": "bool",
          "name": "",
          "type": "bool"
        }
      ],
      "stateMutability": "nonpayable",
      "type": "function"
    },
    {
      "inputs": [
        {
          "internalType": "address",
          "name": "from",
          "type": "address"
        },
        {
          "internalType": "address",
          "name": "to",
          "type": "address"
        },
        {
          "internalType": "uint256",
          "name": "amount",
          "type": "uint256"
        }
      ],
      "name": "transferFrom",
      "outputs": [
        {
          "internalType": "bool",
          "name": "",
          "type": "bool"
        }
      ],
      "stateMutability": "nonpayable",
      "type": "function"
    },
    {
      "inputs": [],
      "name": "getAllCreators",
      "outputs": [
        {
          "components": [
            {
              "internalType": "address",
              "name": "creator",
              "type": "address"
            },
            {
              "internalType": "string",
              "name": "name",
              "type": "string"
            },
            {
              "internalType": "string",
              "name": "email",
              "type": "string"
            },
            {
              "internalType": "string",
              "name": "website",
              "type": "string"
            },
            {
              "internalType": "string",
              "name": "socialMedia",
              "type": "string"
            },
            {
              "internalType": "string",
              "name": "photo",
              "type": "string"
            },
            {
              "internalType": "string",
              "name": "category",
              "type": "string"
            }
          ],
          "internalType": "struct CFP.Creator[]",
          "name": "",
          "type": "tuple[]"
        }
      ],
      "stateMutability": "view",
      "type": "function"
    },
    {
      "inputs": [
        {
          "internalType": "string",
          "name": "category",
          "type": "string"
        }
      ],
      "name": "getCreatorsByCategory",
      "outputs": [
        {
          "components": [
            {
              "internalType": "address",
              "name": "creator",
              "type": "address"
            },
            {
              "internalType": "string",
              "name": "name",
              "type": "string"
            },
            {
              "internalType": "string",
              "name": "email",
              "type": "string"
            },
            {
              "internalType": "string",
              "name": "website",
              "type": "string"
            },
            {
              "internalType": "string",
              "name": "socialMedia",
              "type": "string"
            },
            {
              "internalType": "string",
              "name": "photo",
              "type": "string"
            },
            {
              "internalType": "string",
              "name": "category",
              "type": "string"
            }
          ],
          "internalType": "struct CFP.Creator[]",
          "name": "",
          "type": "tuple[]"
        }
      ],
      "stateMutability": "view",
      "type": "function"
    },
    {
      "inputs": [
        {
          "internalType": "address",
          "name": "creatorAddress",
          "type": "address"
        }
      ],
      "name": "getCreatorDonors",
      "outputs": [
        {
          "components": [
            {
              "internalType": "string",
              "name": "name",
              "type": "string"
            },
            {
              "internalType": "address",
              "name": "user",
              "type": "address"
            },
            {
              "internalType": "bool",
              "name": "isCreator",
              "type": "bool"
            }
          ],
          "internalType": "struct CFP.User[]",
          "name": "",
          "type": "tuple[]"
        }
      ],
      "stateMutability": "view",
      "type": "function"
    },
    {
      "inputs": [
        {
          "internalType": "address",
          "name": "userAddress",
          "type": "address"
        }
      ],
      "name": "getUserCreators",
      "outputs": [
        {
          "components": [
            {
              "internalType": "address",
              "name": "creator",
              "type": "address"
            },
            {
              "internalType": "string",
              "name": "name",
              "type": "string"
            },
            {
              "internalType": "string",
              "name": "email",
              "type": "string"
            },
            {
              "internalType": "string",
              "name": "website",
              "type": "string"
            },
            {
              "internalType": "string",
              "name": "socialMedia",
              "type": "string"
            },
            {
              "internalType": "string",
              "name": "photo",
              "type": "string"
            },
            {
              "internalType": "string",
              "name": "category",
              "type": "string"
            }
          ],
          "internalType": "struct CFP.Creator[]",
          "name": "",
          "type": "tuple[]"
        }
      ],
      "stateMutability": "view",
      "type": "function"
    },
    {
      "inputs": [
        {
          "internalType": "string",
          "name": "_name",
          "type": "string"
        },
        {
          "internalType": "string",
          "name": "_email",
          "type": "string"
        },
        {
          "internalType": "string",
          "name": "_website",
          "type": "string"
        },
        {
          "internalType": "string",
          "name": "_socialMedia",
          "type": "string"
        },
        {
          "internalType": "string",
          "name": "_photo",
          "type": "string"
        }
      ],
      "name": "createCreator",
      "outputs": [
        {
          "internalType": "bool",
          "name": "",
          "type": "bool"
        }
      ],
      "stateMutability": "nonpayable",
      "type": "function"
    },
    {
      "inputs": [
        {
          "internalType": "string",
          "name": "_name",
          "type": "string"
        },
        {
          "internalType": "string",
          "name": "_email",
          "type": "string"
        },
        {
          "internalType": "string",
          "name": "_website",
          "type": "string"
        },
        {
          "internalType": "string",
          "name": "_socialMedia",
          "type": "string"
        },
        {
          "internalType": "string",
          "name": "_photo",
          "type": "string"
        }
      ],
      "name": "updateCreator",
      "outputs": [
        {
          "internalType": "bool",
          "name": "",
          "type": "bool"
        }
      ],
      "stateMutability": "nonpayable",
      "type": "function"
    },
    {
      "inputs": [
        {
          "internalType": "address",
          "name": "userAddress",
          "type": "address"
        }
      ],
      "name": "getUserDonations",
      "outputs": [
        {
          "components": [
            {
              "internalType": "address",
              "name": "to",
              "type": "address"
            },
            {
              "internalType": "address",
              "name": "from",
              "type": "address"
            },
            {
              "internalType": "uint256",
              "name": "amount",
              "type": "uint256"
            },
            {
              "internalType": "uint256",
              "name": "timestamp",
              "type": "uint256"
            }
          ],
          "internalType": "struct CFP.Donation[]",
          "name": "",
          "type": "tuple[]"
        }
      ],
      "stateMutability": "view",
      "type": "function"
    },
    {
      "inputs": [
        {
          "internalType": "address",
          "name": "creatorAddress",
          "type": "address"
        }
      ],
      "name": "getCreatorDonations",
      "outputs": [
        {
          "components": [
            {
              "internalType": "address",
              "name": "to",
              "type": "address"
            },
            {
              "internalType": "address",
              "name": "from",
              "type": "address"
            },
            {
              "internalType": "uint256",
              "name": "amount",
              "type": "uint256"
            },
            {
              "internalType": "uint256",
              "name": "timestamp",
              "type": "uint256"
            }
          ],
          "internalType": "struct CFP.Donation[]",
          "name": "",
          "type": "tuple[]"
        }
      ],
      "stateMutability": "view",
      "type": "function"
    },
    {
      "inputs": [
        {
          "internalType": "string",
          "name": "_name",
          "type": "string"
        }
      ],
      "name": "createUser",
      "outputs": [
        {
          "internalType": "bool",
          "name": "",
          "type": "bool"
        }
      ],
      "stateMutability": "nonpayable",
      "type": "function"
    },
    {
      "inputs": [
        {
          "internalType": "address payable",
          "name": "_to",
          "type": "address"
        }
      ],
      "name": "donate",
      "outputs": [],
      "stateMutability": "payable",
      "type": "function"
    },
    {
      "inputs": [
        {
          "internalType": "address",
          "name": "creatorAddress",
          "type": "address"
        }
      ],
      "name": "runGiveaway",
      "outputs": [],
      "stateMutability": "nonpayable",
      "type": "function"
    }
  ],
  "bytecode": "0x60806040523480156200001157600080fd5b506040518060400160405280600c81526020017f43726561746f72546f6b656e00000000000000000000000000000000000000008152506040518060400160405280600481526020017f435254520000000000000000000000000000000000000000000000000000000081525081600390816200008f9190620004ee565b508060049081620000a19190620004ee565b505050620000e333620000b9620000e960201b60201c565b600a620000c7919062000765565b620f4240620000d79190620007b6565b620000f260201b60201c565b62000925565b60006012905090565b600073ffffffffffffffffffffffffffffffffffffffff168273ffffffffffffffffffffffffffffffffffffffff160362000164576040517f08c379a00000000000000000000000000000000000000000000000000000000081526004016200015b9062000878565b60405180910390fd5b62000178600083836200026a60201b60201c565b80600260008282546200018c91906200089a565b92505081905550806000808473ffffffffffffffffffffffffffffffffffffffff1673ffffffffffffffffffffffffffffffffffffffff1681526020019081526020016000206000828254620001e391906200089a565b925050819055508173ffffffffffffffffffffffffffffffffffffffff16600073ffffffffffffffffffffffffffffffffffffffff167fddf252ad1be2c89b69c2b068fc378daa952ba7f163c4a11628f55a4df523b3ef836040516200024a919062000908565b60405180910390a362000266600083836200026f60201b60201c565b5050565b505050565b505050565b600081519050919050565b7f4e487b7100000000000000000000000000000000000000000000000000000000600052604160045260246000fd5b7f4e487b7100000000000000000000000000000000000000000000000000000000600052602260045260246000fd5b60006002820490506001821680620002f657607f821691505b6020821081036200030c576200030b620002ae565b5b50919050565b60008190508160005260206000209050919050565b60006020601f8301049050919050565b600082821b905092915050565b600060088302620003767fffffffffffffffffffffffffffffffffffffffffffffffffffffffffffffffff8262000337565b62000382868362000337565b95508019841693508086168417925050509392505050565b6000819050919050565b6000819050919050565b6000620003cf620003c9620003c3846200039a565b620003a4565b6200039a565b9050919050565b6000819050919050565b620003eb83620003ae565b62000403620003fa82620003d6565b84845462000344565b825550505050565b600090565b6200041a6200040b565b62000427818484620003e0565b505050565b5b818110156200044f576200044360008262000410565b6001810190506200042d565b5050565b601f8211156200049e57620004688162000312565b620004738462000327565b8101602085101562000483578190505b6200049b620004928562000327565b8301826200042c565b50505b505050565b600082821c905092915050565b6000620004c360001984600802620004a3565b1980831691505092915050565b6000620004de8383620004b0565b9150826002028217905092915050565b620004f98262000274565b67ffffffffffffffff8111156200051557620005146200027f565b5b620005218254620002dd565b6200052e82828562000453565b600060209050601f83116001811462000566576000841562000551578287015190505b6200055d8582620004d0565b865550620005cd565b601f198416620005768662000312565b60005b82811015620005a05784890151825560018201915060208501945060208101905062000579565b86831015620005c05784890151620005bc601f891682620004b0565b8355505b6001600288020188555050505b505050505050565b7f4e487b7100000000000000000000000000000000000000000000000000000000600052601160045260246000fd5b60008160011c9050919050565b6000808291508390505b600185111562000663578086048111156200063b576200063a620005d5565b5b60018516156200064b5780820291505b80810290506200065b8562000604565b94506200061b565b94509492505050565b6000826200067e576001905062000751565b816200068e576000905062000751565b8160018114620006a75760028114620006b257620006e8565b600191505062000751565b60ff841115620006c757620006c6620005d5565b5b8360020a915084821115620006e157620006e0620005d5565b5b5062000751565b5060208310610133831016604e8410600b8410161715620007225782820a9050838111156200071c576200071b620005d5565b5b62000751565b62000731848484600162000611565b925090508184048111156200074b576200074a620005d5565b5b81810290505b9392505050565b600060ff82169050919050565b600062000772826200039a565b91506200077f8362000758565b9250620007ae7fffffffffffffffffffffffffffffffffffffffffffffffffffffffffffffffff84846200066c565b905092915050565b6000620007c3826200039a565b9150620007d0836200039a565b9250817fffffffffffffffffffffffffffffffffffffffffffffffffffffffffffffffff04831182151516156200080c576200080b620005d5565b5b828202905092915050565b600082825260208201905092915050565b7f45524332303a206d696e7420746f20746865207a65726f206164647265737300600082015250565b600062000860601f8362000817565b91506200086d8262000828565b602082019050919050565b60006020820190508181036000830152620008938162000851565b9050919050565b6000620008a7826200039a565b9150620008b4836200039a565b9250827fffffffffffffffffffffffffffffffffffffffffffffffffffffffffffffffff03821115620008ec57620008eb620005d5565b5b828201905092915050565b62000902816200039a565b82525050565b60006020820190506200091f6000830184620008f7565b92915050565b61576680620009356000396000f3fe6080604052600436106101345760003560e01c8063732435b2116100ab578063aec23cde1161006f578063aec23cde146104a0578063b6f2aebd146104dd578063c148c3571461051a578063dd62ed3e14610543578063f97fac4d14610580578063fef5e458146105ab57610134565b8063732435b21461038157806395d89b41146103be578063a457c2d7146103e9578063a56c87c714610426578063a9059cbb1461046357610134565b80632cbfe30a116100fd5780632cbfe30a14610225578063313ce56714610262578063395093511461028d578063507ffba5146102ca5780636433e07b1461030757806370a082311461034457610134565b8062362a951461013957806306fdde0314610155578063095ea7b31461018057806318160ddd146101bd57806323b872dd146101e8575b600080fd5b610153600480360381019061014e9190613f83565b6105e8565b005b34801561016157600080fd5b5061016a610e04565b6040516101779190614049565b60405180910390f35b34801561018c57600080fd5b506101a760048036038101906101a291906140df565b610e96565b6040516101b4919061413a565b60405180910390f35b3480156101c957600080fd5b506101d2610eb9565b6040516101df9190614164565b60405180910390f35b3480156101f457600080fd5b5061020f600480360381019061020a919061417f565b610ec3565b60405161021c919061413a565b60405180910390f35b34801561023157600080fd5b5061024c600480360381019061024791906141d2565b610ef2565b60405161025991906143d9565b60405180910390f35b34801561026e57600080fd5b50610277611442565b6040516102849190614417565b60405180910390f35b34801561029957600080fd5b506102b460048036038101906102af91906140df565b61144b565b6040516102c1919061413a565b60405180910390f35b3480156102d657600080fd5b506102f160048036038101906102ec9190614567565b611482565b6040516102fe919061413a565b60405180910390f35b34801561031357600080fd5b5061032e600480360381019061032991906145b0565b611699565b60405161033b919061413a565b60405180910390f35b34801561035057600080fd5b5061036b600480360381019061036691906141d2565b611b92565b6040516103789190614164565b60405180910390f35b34801561038d57600080fd5b506103a860048036038101906103a391906141d2565b611bda565b6040516103b591906147ca565b60405180910390f35b3480156103ca57600080fd5b506103d3611e28565b6040516103e09190614049565b60405180910390f35b3480156103f557600080fd5b50610410600480360381019061040b91906140df565b611eba565b60405161041d919061413a565b60405180910390f35b34801561043257600080fd5b5061044d600480360381019061044891906141d2565b611f31565b60405161045a919061490d565b60405180910390f35b34801561046f57600080fd5b5061048a600480360381019061048591906140df565b6121c2565b604051610497919061413a565b60405180910390f35b3480156104ac57600080fd5b506104c760048036038101906104c29190614567565b6121e5565b6040516104d491906143d9565b60405180910390f35b3480156104e957600080fd5b5061050460048036038101906104ff91906145b0565b6127f1565b604051610511919061413a565b60405180910390f35b34801561052657600080fd5b50610541600480360381019061053c91906141d2565b612ad8565b005b34801561054f57600080fd5b5061056a6004803603810190610565919061492f565b612c74565b6040516105779190614164565b60405180910390f35b34801561058c57600080fd5b50610595612cfb565b6040516105a291906143d9565b60405180910390f35b3480156105b757600080fd5b506105d260048036038101906105cd91906141d2565b6131ed565b6040516105df91906147ca565b60405180910390f35b6000341161062b576040517f08c379a0000000000000000000000000000000000000000000000000000000008152600401610622906149bb565b60405180910390fd5b600f60008273ffffffffffffffffffffffffffffffffffffffff1673ffffffffffffffffffffffffffffffffffffffff16815260200190815260200160002060009054906101000a900460ff166106b7576040517f08c379a00000000000000000000000000000000000000000000000000000000081526004016106ae90614a27565b60405180910390fd5b8073ffffffffffffffffffffffffffffffffffffffff166108fc349081150290604051600060405180830381858888f193505050501580156106fd573d6000803e3d6000fd5b5034601060008373ffffffffffffffffffffffffffffffffffffffff1673ffffffffffffffffffffffffffffffffffffffff168152602001908152602001600020600082825461074d9190614a76565b9250508190555034600660003373ffffffffffffffffffffffffffffffffffffffff1673ffffffffffffffffffffffffffffffffffffffff16815260200190815260200160002060008373ffffffffffffffffffffffffffffffffffffffff1673ffffffffffffffffffffffffffffffffffffffff16815260200190815260200160002060008282546107e09190614a76565b9250508190555034600960008373ffffffffffffffffffffffffffffffffffffffff1673ffffffffffffffffffffffffffffffffffffffff16815260200190815260200160002060003373ffffffffffffffffffffffffffffffffffffffff1673ffffffffffffffffffffffffffffffffffffffff16815260200190815260200160002060008282546108739190614a76565b92505081905550600760003373ffffffffffffffffffffffffffffffffffffffff1673ffffffffffffffffffffffffffffffffffffffff168152602001908152602001600020600d60008373ffffffffffffffffffffffffffffffffffffffff1673ffffffffffffffffffffffffffffffffffffffff16815260200190815260200160002090806001815401808255809150506001900390600052602060002090600702016000909190919091506000820160009054906101000a900473ffffffffffffffffffffffffffffffffffffffff168160000160006101000a81548173ffffffffffffffffffffffffffffffffffffffff021916908373ffffffffffffffffffffffffffffffffffffffff1602179055506001820181600101908161099c9190614cee565b50600282018160020190816109b19190614cee565b50600382018160030190816109c69190614cee565b50600482018160040190816109db9190614cee565b50600582018160050190816109f09190614cee565b5060068201816006019081610a059190614cee565b505050600a60008273ffffffffffffffffffffffffffffffffffffffff1673ffffffffffffffffffffffffffffffffffffffff168152602001908152602001600020600b60003373ffffffffffffffffffffffffffffffffffffffff1673ffffffffffffffffffffffffffffffffffffffff168152602001908152602001600020908060018154018082558091505060019003906000526020600020906002020160009091909190915060008201816000019081610ac39190614cee565b506001820160009054906101000a900473ffffffffffffffffffffffffffffffffffffffff168160010160006101000a81548173ffffffffffffffffffffffffffffffffffffffff021916908373ffffffffffffffffffffffffffffffffffffffff1602179055506001820160149054906101000a900460ff168160010160146101000a81548160ff0219169083151502179055505050610b62613e31565b81816000019073ffffffffffffffffffffffffffffffffffffffff16908173ffffffffffffffffffffffffffffffffffffffff168152505033816020019073ffffffffffffffffffffffffffffffffffffffff16908173ffffffffffffffffffffffffffffffffffffffff16815250503481604001818152505042816060018181525050600560003373ffffffffffffffffffffffffffffffffffffffff1673ffffffffffffffffffffffffffffffffffffffff16815260200190815260200160002081908060018154018082558091505060019003906000526020600020906004020160009091909190915060008201518160000160006101000a81548173ffffffffffffffffffffffffffffffffffffffff021916908373ffffffffffffffffffffffffffffffffffffffff16021790555060208201518160010160006101000a81548173ffffffffffffffffffffffffffffffffffffffff021916908373ffffffffffffffffffffffffffffffffffffffff16021790555060408201518160020155606082015181600301555050600860008373ffffffffffffffffffffffffffffffffffffffff1673ffffffffffffffffffffffffffffffffffffffff16815260200190815260200160002081908060018154018082558091505060019003906000526020600020906004020160009091909190915060008201518160000160006101000a81548173ffffffffffffffffffffffffffffffffffffffff021916908373ffffffffffffffffffffffffffffffffffffffff16021790555060208201518160010160006101000a81548173ffffffffffffffffffffffffffffffffffffffff021916908373ffffffffffffffffffffffffffffffffffffffff160217905550604082015181600201556060820151816003015550505050565b606060038054610e1390614afb565b80601f0160208091040260200160405190810160405280929190818152602001828054610e3f90614afb565b8015610e8c5780601f10610e6157610100808354040283529160200191610e8c565b820191906000526020600020905b815481529060010190602001808311610e6f57829003601f168201915b5050505050905090565b600080610ea161343b565b9050610eae818585613443565b600191505092915050565b6000600254905090565b600080610ece61343b565b9050610edb85828561360c565b610ee6858585613698565b60019150509392505050565b60606000600760008473ffffffffffffffffffffffffffffffffffffffff1673ffffffffffffffffffffffffffffffffffffffff1681526020019081526020016000208054905067ffffffffffffffff811115610f5257610f5161443c565b5b604051908082528060200260200182016040528015610f8b57816020015b610f78613e85565b815260200190600190039081610f705790505b50905060005b600760008573ffffffffffffffffffffffffffffffffffffffff1673ffffffffffffffffffffffffffffffffffffffff1681526020019081526020016000208054905081101561143857600760008573ffffffffffffffffffffffffffffffffffffffff1673ffffffffffffffffffffffffffffffffffffffff168152602001908152602001600020818154811061102c5761102b614dd6565b5b90600052602060002090600702016040518060e00160405290816000820160009054906101000a900473ffffffffffffffffffffffffffffffffffffffff1673ffffffffffffffffffffffffffffffffffffffff1673ffffffffffffffffffffffffffffffffffffffff1681526020016001820180546110ab90614afb565b80601f01602080910402602001604051908101604052809291908181526020018280546110d790614afb565b80156111245780601f106110f957610100808354040283529160200191611124565b820191906000526020600020905b81548152906001019060200180831161110757829003601f168201915b5050505050815260200160028201805461113d90614afb565b80601f016020809104026020016040519081016040528092919081815260200182805461116990614afb565b80156111b65780601f1061118b576101008083540402835291602001916111b6565b820191906000526020600020905b81548152906001019060200180831161119957829003601f168201915b505050505081526020016003820180546111cf90614afb565b80601f01602080910402602001604051908101604052809291908181526020018280546111fb90614afb565b80156112485780601f1061121d57610100808354040283529160200191611248565b820191906000526020600020905b81548152906001019060200180831161122b57829003601f168201915b5050505050815260200160048201805461126190614afb565b80601f016020809104026020016040519081016040528092919081815260200182805461128d90614afb565b80156112da5780601f106112af576101008083540402835291602001916112da565b820191906000526020600020905b8154815290600101906020018083116112bd57829003601f168201915b505050505081526020016005820180546112f390614afb565b80601f016020809104026020016040519081016040528092919081815260200182805461131f90614afb565b801561136c5780601f106113415761010080835404028352916020019161136c565b820191906000526020600020905b81548152906001019060200180831161134f57829003601f168201915b5050505050815260200160068201805461138590614afb565b80601f01602080910402602001604051908101604052809291908181526020018280546113b190614afb565b80156113fe5780601f106113d3576101008083540402835291602001916113fe565b820191906000526020600020905b8154815290600101906020018083116113e157829003601f168201915b50505050508152505082828151811061141a57611419614dd6565b5b6020026020010181905250808061143090614e05565b915050610f91565b5080915050919050565b60006012905090565b60008061145661343b565b90506114778185856114688589612c74565b6114729190614a76565b613443565b600191505092915050565b6000600c60003373ffffffffffffffffffffffffffffffffffffffff1673ffffffffffffffffffffffffffffffffffffffff16815260200190815260200160002060009054906101000a900460ff1615611511576040517f08c379a000000000000000000000000000000000000000000000000000000000815260040161150890614e99565b60405180910390fd5b611519613ed8565b82816000018190525033816020019073ffffffffffffffffffffffffffffffffffffffff16908173ffffffffffffffffffffffffffffffffffffffff1681525050600081604001901515908115158152505080600b60003373ffffffffffffffffffffffffffffffffffffffff1673ffffffffffffffffffffffffffffffffffffffff16815260200190815260200160002060008201518160000190816115c09190614eb9565b5060208201518160010160006101000a81548173ffffffffffffffffffffffffffffffffffffffff021916908373ffffffffffffffffffffffffffffffffffffffff16021790555060408201518160010160146101000a81548160ff0219169083151502179055509050506001600c60003373ffffffffffffffffffffffffffffffffffffffff1673ffffffffffffffffffffffffffffffffffffffff16815260200190815260200160002060006101000a81548160ff02191690831515021790555061168f336103e8613917565b6001915050919050565b6000600f60003373ffffffffffffffffffffffffffffffffffffffff1673ffffffffffffffffffffffffffffffffffffffff16815260200190815260200160002060009054906101000a900460ff1615611728576040517f08c379a000000000000000000000000000000000000000000000000000000000815260040161171f90614fd7565b60405180910390fd5b611730613e85565b33816000019073ffffffffffffffffffffffffffffffffffffffff16908173ffffffffffffffffffffffffffffffffffffffff1681525050868160200181905250858160400181905250848160600181905250838160800181905250828160a0018190525080600d60003373ffffffffffffffffffffffffffffffffffffffff1673ffffffffffffffffffffffffffffffffffffffff16815260200190815260200160002060008201518160000160006101000a81548173ffffffffffffffffffffffffffffffffffffffff021916908373ffffffffffffffffffffffffffffffffffffffff16021790555060208201518160010190816118319190614eb9565b5060408201518160020190816118479190614eb9565b50606082015181600301908161185d9190614eb9565b5060808201518160040190816118739190614eb9565b5060a08201518160050190816118899190614eb9565b5060c082015181600601908161189f9190614eb9565b509050506001600f60003373ffffffffffffffffffffffffffffffffffffffff1673ffffffffffffffffffffffffffffffffffffffff16815260200190815260200160002060006101000a81548160ff021916908315150217905550600e339080600181540180825580915050600190039060005260206000200160009091909190916101000a81548173ffffffffffffffffffffffffffffffffffffffff021916908373ffffffffffffffffffffffffffffffffffffffff160217905550600c60003373ffffffffffffffffffffffffffffffffffffffff1673ffffffffffffffffffffffffffffffffffffffff16815260200190815260200160002060009054906101000a900460ff1615611a10576001600b60003373ffffffffffffffffffffffffffffffffffffffff1673ffffffffffffffffffffffffffffffffffffffff16815260200190815260200160002060010160146101000a81548160ff021916908315150217905550611b84565b611a18613ed8565b87816000018190525033816020019073ffffffffffffffffffffffffffffffffffffffff16908173ffffffffffffffffffffffffffffffffffffffff1681525050600181604001901515908115158152505080600b60003373ffffffffffffffffffffffffffffffffffffffff1673ffffffffffffffffffffffffffffffffffffffff1681526020019081526020016000206000820151816000019081611abf9190614eb9565b5060208201518160010160006101000a81548173ffffffffffffffffffffffffffffffffffffffff021916908373ffffffffffffffffffffffffffffffffffffffff16021790555060408201518160010160146101000a81548160ff0219169083151502179055509050506001600c60003373ffffffffffffffffffffffffffffffffffffffff1673ffffffffffffffffffffffffffffffffffffffff16815260200190815260200160002060006101000a81548160ff021916908315150217905550505b600191505095945050505050565b60008060008373ffffffffffffffffffffffffffffffffffffffff1673ffffffffffffffffffffffffffffffffffffffff168152602001908152602001600020549050919050565b60606000600560008473ffffffffffffffffffffffffffffffffffffffff1673ffffffffffffffffffffffffffffffffffffffff1681526020019081526020016000208054905067ffffffffffffffff811115611c3a57611c3961443c565b5b604051908082528060200260200182016040528015611c7357816020015b611c60613e31565b815260200190600190039081611c585790505b50905060005b600560008573ffffffffffffffffffffffffffffffffffffffff1673ffffffffffffffffffffffffffffffffffffffff16815260200190815260200160002080549050811015611e1e57600560008573ffffffffffffffffffffffffffffffffffffffff1673ffffffffffffffffffffffffffffffffffffffff1681526020019081526020016000208181548110611d1457611d13614dd6565b5b90600052602060002090600402016040518060800160405290816000820160009054906101000a900473ffffffffffffffffffffffffffffffffffffffff1673ffffffffffffffffffffffffffffffffffffffff1673ffffffffffffffffffffffffffffffffffffffff1681526020016001820160009054906101000a900473ffffffffffffffffffffffffffffffffffffffff1673ffffffffffffffffffffffffffffffffffffffff1673ffffffffffffffffffffffffffffffffffffffff16815260200160028201548152602001600382015481525050828281518110611e0057611dff614dd6565b5b60200260200101819052508080611e1690614e05565b915050611c79565b5080915050919050565b606060048054611e3790614afb565b80601f0160208091040260200160405190810160405280929190818152602001828054611e6390614afb565b8015611eb05780601f10611e8557610100808354040283529160200191611eb0565b820191906000526020600020905b815481529060010190602001808311611e9357829003601f168201915b5050505050905090565b600080611ec561343b565b90506000611ed38286612c74565b905083811015611f18576040517f08c379a0000000000000000000000000000000000000000000000000000000008152600401611f0f90615069565b60405180910390fd5b611f258286868403613443565b60019250505092915050565b60606000600a60008473ffffffffffffffffffffffffffffffffffffffff1673ffffffffffffffffffffffffffffffffffffffff1681526020019081526020016000208054905067ffffffffffffffff811115611f9157611f9061443c565b5b604051908082528060200260200182016040528015611fca57816020015b611fb7613ed8565b815260200190600190039081611faf5790505b50905060005b600a60008573ffffffffffffffffffffffffffffffffffffffff1673ffffffffffffffffffffffffffffffffffffffff168152602001908152602001600020805490508110156121b857600a60008573ffffffffffffffffffffffffffffffffffffffff1673ffffffffffffffffffffffffffffffffffffffff168152602001908152602001600020818154811061206b5761206a614dd6565b5b906000526020600020906002020160405180606001604052908160008201805461209490614afb565b80601f01602080910402602001604051908101604052809291908181526020018280546120c090614afb565b801561210d5780601f106120e25761010080835404028352916020019161210d565b820191906000526020600020905b8154815290600101906020018083116120f057829003601f168201915b505050505081526020016001820160009054906101000a900473ffffffffffffffffffffffffffffffffffffffff1673ffffffffffffffffffffffffffffffffffffffff1673ffffffffffffffffffffffffffffffffffffffff1681526020016001820160149054906101000a900460ff16151515158152505082828151811061219a57612199614dd6565b5b602002602001018190525080806121b090614e05565b915050611fd0565b5080915050919050565b6000806121cd61343b565b90506121da818585613698565b600191505092915050565b60606000600e8054905067ffffffffffffffff8111156122085761220761443c565b5b60405190808252806020026020018201604052801561224157816020015b61222e613e85565b8152602001906001900390816122265790505b50905060005b600e805490508110156127e757612366600d6000600e848154811061226f5761226e614dd6565b5b9060005260206000200160009054906101000a900473ffffffffffffffffffffffffffffffffffffffff1673ffffffffffffffffffffffffffffffffffffffff1673ffffffffffffffffffffffffffffffffffffffff16815260200190815260200160002060060180546122e290614afb565b80601f016020809104026020016040519081016040528092919081815260200182805461230e90614afb565b801561235b5780601f106123305761010080835404028352916020019161235b565b820191906000526020600020905b81548152906001019060200180831161233e57829003601f168201915b505050505085613a76565b156127d457600d6000600e838154811061238357612382614dd6565b5b9060005260206000200160009054906101000a900473ffffffffffffffffffffffffffffffffffffffff1673ffffffffffffffffffffffffffffffffffffffff1673ffffffffffffffffffffffffffffffffffffffff1681526020019081526020016000206040518060e00160405290816000820160009054906101000a900473ffffffffffffffffffffffffffffffffffffffff1673ffffffffffffffffffffffffffffffffffffffff1673ffffffffffffffffffffffffffffffffffffffff16815260200160018201805461245990614afb565b80601f016020809104026020016040519081016040528092919081815260200182805461248590614afb565b80156124d25780601f106124a7576101008083540402835291602001916124d2565b820191906000526020600020905b8154815290600101906020018083116124b557829003601f168201915b505050505081526020016002820180546124eb90614afb565b80601f016020809104026020016040519081016040528092919081815260200182805461251790614afb565b80156125645780601f1061253957610100808354040283529160200191612564565b820191906000526020600020905b81548152906001019060200180831161254757829003601f168201915b5050505050815260200160038201805461257d90614afb565b80601f01602080910402602001604051908101604052809291908181526020018280546125a990614afb565b80156125f65780601f106125cb576101008083540402835291602001916125f6565b820191906000526020600020905b8154815290600101906020018083116125d957829003601f168201915b5050505050815260200160048201805461260f90614afb565b80601f016020809104026020016040519081016040528092919081815260200182805461263b90614afb565b80156126885780601f1061265d57610100808354040283529160200191612688565b820191906000526020600020905b81548152906001019060200180831161266b57829003601f168201915b505050505081526020016005820180546126a190614afb565b80601f01602080910402602001604051908101604052809291908181526020018280546126cd90614afb565b801561271a5780601f106126ef5761010080835404028352916020019161271a565b820191906000526020600020905b8154815290600101906020018083116126fd57829003601f168201915b5050505050815260200160068201805461273390614afb565b80601f016020809104026020016040519081016040528092919081815260200182805461275f90614afb565b80156127ac5780601f10612781576101008083540402835291602001916127ac565b820191906000526020600020905b81548152906001019060200180831161278f57829003601f168201915b5050505050815250508282815181106127c8576127c7614dd6565b5b60200260200101819052505b80806127df90614e05565b915050612247565b5080915050919050565b6000600f60003373ffffffffffffffffffffffffffffffffffffffff1673ffffffffffffffffffffffffffffffffffffffff16815260200190815260200160002060009054906101000a900460ff1661287f576040517f08c379a0000000000000000000000000000000000000000000000000000000008152600401612876906150d5565b60405180910390fd5b600d60003373ffffffffffffffffffffffffffffffffffffffff1673ffffffffffffffffffffffffffffffffffffffff16815260200190815260200160002060000160009054906101000a900473ffffffffffffffffffffffffffffffffffffffff1673ffffffffffffffffffffffffffffffffffffffff163373ffffffffffffffffffffffffffffffffffffffff161461294f576040517f08c379a000000000000000000000000000000000000000000000000000000000815260040161294690615167565b60405180910390fd5b612957613e85565b33816000019073ffffffffffffffffffffffffffffffffffffffff16908173ffffffffffffffffffffffffffffffffffffffff1681525050868160200181905250858160400181905250848160600181905250838160800181905250828160a0018190525080600d60003373ffffffffffffffffffffffffffffffffffffffff1673ffffffffffffffffffffffffffffffffffffffff16815260200190815260200160002060008201518160000160006101000a81548173ffffffffffffffffffffffffffffffffffffffff021916908373ffffffffffffffffffffffffffffffffffffffff1602179055506020820151816001019081612a589190614eb9565b506040820151816002019081612a6e9190614eb9565b506060820151816003019081612a849190614eb9565b506080820151816004019081612a9a9190614eb9565b5060a0820151816005019081612ab09190614eb9565b5060c0820151816006019081612ac69190614eb9565b50905050600191505095945050505050565b8073ffffffffffffffffffffffffffffffffffffffff163373ffffffffffffffffffffffffffffffffffffffff1614612b46576040517f08c379a0000000000000000000000000000000000000000000000000000000008152600401612b3d906151d3565b60405180910390fd5b600f60008273ffffffffffffffffffffffffffffffffffffffff1673ffffffffffffffffffffffffffffffffffffffff16815260200190815260200160002060009054906101000a900460ff16612bd2576040517f08c379a0000000000000000000000000000000000000000000000000000000008152600401612bc9906150d5565b60405180910390fd5b6000600a60008373ffffffffffffffffffffffffffffffffffffffff1673ffffffffffffffffffffffffffffffffffffffff1681526020019081526020016000208054905011612c57576040517f08c379a0000000000000000000000000000000000000000000000000000000008152600401612c4e9061523f565b60405180910390fd5b6000612c6282613acf565b9050612c70816103e8613917565b5050565b6000600160008473ffffffffffffffffffffffffffffffffffffffff1673ffffffffffffffffffffffffffffffffffffffff16815260200190815260200160002060008373ffffffffffffffffffffffffffffffffffffffff1673ffffffffffffffffffffffffffffffffffffffff16815260200190815260200160002054905092915050565b60606000600e8054905067ffffffffffffffff811115612d1e57612d1d61443c565b5b604051908082528060200260200182016040528015612d5757816020015b612d44613e85565b815260200190600190039081612d3c5790505b50905060005b600e805490508110156131e557600d6000600e8381548110612d8257612d81614dd6565b5b9060005260206000200160009054906101000a900473ffffffffffffffffffffffffffffffffffffffff1673ffffffffffffffffffffffffffffffffffffffff1673ffffffffffffffffffffffffffffffffffffffff1681526020019081526020016000206040518060e00160405290816000820160009054906101000a900473ffffffffffffffffffffffffffffffffffffffff1673ffffffffffffffffffffffffffffffffffffffff1673ffffffffffffffffffffffffffffffffffffffff168152602001600182018054612e5890614afb565b80601f0160208091040260200160405190810160405280929190818152602001828054612e8490614afb565b8015612ed15780601f10612ea657610100808354040283529160200191612ed1565b820191906000526020600020905b815481529060010190602001808311612eb457829003601f168201915b50505050508152602001600282018054612eea90614afb565b80601f0160208091040260200160405190810160405280929190818152602001828054612f1690614afb565b8015612f635780601f10612f3857610100808354040283529160200191612f63565b820191906000526020600020905b815481529060010190602001808311612f4657829003601f168201915b50505050508152602001600382018054612f7c90614afb565b80601f0160208091040260200160405190810160405280929190818152602001828054612fa890614afb565b8015612ff55780601f10612fca57610100808354040283529160200191612ff5565b820191906000526020600020905b815481529060010190602001808311612fd857829003601f168201915b5050505050815260200160048201805461300e90614afb565b80601f016020809104026020016040519081016040528092919081815260200182805461303a90614afb565b80156130875780601f1061305c57610100808354040283529160200191613087565b820191906000526020600020905b81548152906001019060200180831161306a57829003601f168201915b505050505081526020016005820180546130a090614afb565b80601f01602080910402602001604051908101604052809291908181526020018280546130cc90614afb565b80156131195780601f106130ee57610100808354040283529160200191613119565b820191906000526020600020905b8154815290600101906020018083116130fc57829003601f168201915b5050505050815260200160068201805461313290614afb565b80601f016020809104026020016040519081016040528092919081815260200182805461315e90614afb565b80156131ab5780601f10613180576101008083540402835291602001916131ab565b820191906000526020600020905b81548152906001019060200180831161318e57829003601f168201915b5050505050815250508282815181106131c7576131c6614dd6565b5b602002602001018190525080806131dd90614e05565b915050612d5d565b508091505090565b60606000600860008473ffffffffffffffffffffffffffffffffffffffff1673ffffffffffffffffffffffffffffffffffffffff1681526020019081526020016000208054905067ffffffffffffffff81111561324d5761324c61443c565b5b60405190808252806020026020018201604052801561328657816020015b613273613e31565b81526020019060019003908161326b5790505b50905060005b600860008573ffffffffffffffffffffffffffffffffffffffff1673ffffffffffffffffffffffffffffffffffffffff1681526020019081526020016000208054905081101561343157600860008573ffffffffffffffffffffffffffffffffffffffff1673ffffffffffffffffffffffffffffffffffffffff168152602001908152602001600020818154811061332757613326614dd6565b5b90600052602060002090600402016040518060800160405290816000820160009054906101000a900473ffffffffffffffffffffffffffffffffffffffff1673ffffffffffffffffffffffffffffffffffffffff1673ffffffffffffffffffffffffffffffffffffffff1681526020016001820160009054906101000a900473ffffffffffffffffffffffffffffffffffffffff1673ffffffffffffffffffffffffffffffffffffffff1673ffffffffffffffffffffffffffffffffffffffff1681526020016002820154815260200160038201548152505082828151811061341357613412614dd6565b5b6020026020010181905250808061342990614e05565b91505061328c565b5080915050919050565b600033905090565b600073ffffffffffffffffffffffffffffffffffffffff168373ffffffffffffffffffffffffffffffffffffffff16036134b2576040517f08c379a00000000000000000000000000000000000000000000000000000000081526004016134a9906152d1565b60405180910390fd5b600073ffffffffffffffffffffffffffffffffffffffff168273ffffffffffffffffffffffffffffffffffffffff1603613521576040517f08c379a000000000000000000000000000000000000000000000000000000000815260040161351890615363565b60405180910390fd5b80600160008573ffffffffffffffffffffffffffffffffffffffff1673ffffffffffffffffffffffffffffffffffffffff16815260200190815260200160002060008473ffffffffffffffffffffffffffffffffffffffff1673ffffffffffffffffffffffffffffffffffffffff168152602001908152602001600020819055508173ffffffffffffffffffffffffffffffffffffffff168373ffffffffffffffffffffffffffffffffffffffff167f8c5be1e5ebec7d5bd14f71427d1e84f3dd0314c0f7b2291e5b200ac8c7c3b925836040516135ff9190614164565b60405180910390a3505050565b60006136188484612c74565b90507fffffffffffffffffffffffffffffffffffffffffffffffffffffffffffffffff81146136925781811015613684576040517f08c379a000000000000000000000000000000000000000000000000000000000815260040161367b906153cf565b60405180910390fd5b6136918484848403613443565b5b50505050565b600073ffffffffffffffffffffffffffffffffffffffff168373ffffffffffffffffffffffffffffffffffffffff1603613707576040517f08c379a00000000000000000000000000000000000000000000000000000000081526004016136fe90615461565b60405180910390fd5b600073ffffffffffffffffffffffffffffffffffffffff168273ffffffffffffffffffffffffffffffffffffffff1603613776576040517f08c379a000000000000000000000000000000000000000000000000000000000815260040161376d906154f3565b60405180910390fd5b613781838383613e27565b60008060008573ffffffffffffffffffffffffffffffffffffffff1673ffffffffffffffffffffffffffffffffffffffff16815260200190815260200160002054905081811015613807576040517f08c379a00000000000000000000000000000000000000000000000000000000081526004016137fe90615585565b60405180910390fd5b8181036000808673ffffffffffffffffffffffffffffffffffffffff1673ffffffffffffffffffffffffffffffffffffffff16815260200190815260200160002081905550816000808573ffffffffffffffffffffffffffffffffffffffff1673ffffffffffffffffffffffffffffffffffffffff168152602001908152602001600020600082825461389a9190614a76565b925050819055508273ffffffffffffffffffffffffffffffffffffffff168473ffffffffffffffffffffffffffffffffffffffff167fddf252ad1be2c89b69c2b068fc378daa952ba7f163c4a11628f55a4df523b3ef846040516138fe9190614164565b60405180910390a3613911848484613e2c565b50505050565b600073ffffffffffffffffffffffffffffffffffffffff168273ffffffffffffffffffffffffffffffffffffffff1603613986576040517f08c379a000000000000000000000000000000000000000000000000000000000815260040161397d906155f1565b60405180910390fd5b61399260008383613e27565b80600260008282546139a49190614a76565b92505081905550806000808473ffffffffffffffffffffffffffffffffffffffff1673ffffffffffffffffffffffffffffffffffffffff16815260200190815260200160002060008282546139f99190614a76565b925050819055508173ffffffffffffffffffffffffffffffffffffffff16600073ffffffffffffffffffffffffffffffffffffffff167fddf252ad1be2c89b69c2b068fc378daa952ba7f163c4a11628f55a4df523b3ef83604051613a5e9190614164565b60405180910390a3613a7260008383613e2c565b5050565b600081604051602001613a89919061564d565b6040516020818303038152906040528051906020012083604051602001613ab0919061564d565b6040516020818303038152906040528051906020012014905092915050565b60008173ffffffffffffffffffffffffffffffffffffffff163373ffffffffffffffffffffffffffffffffffffffff1614613b3f576040517f08c379a0000000000000000000000000000000000000000000000000000000008152600401613b36906156b0565b60405180910390fd5b600f60008373ffffffffffffffffffffffffffffffffffffffff1673ffffffffffffffffffffffffffffffffffffffff16815260200190815260200160002060009054906101000a900460ff16613bcb576040517f08c379a0000000000000000000000000000000000000000000000000000000008152600401613bc2906150d5565b60405180910390fd5b6000600a60008473ffffffffffffffffffffffffffffffffffffffff1673ffffffffffffffffffffffffffffffffffffffff1681526020019081526020016000208054905011613c50576040517f08c379a0000000000000000000000000000000000000000000000000000000008152600401613c479061523f565b60405180910390fd5b613c58613ed8565b6000600a60008573ffffffffffffffffffffffffffffffffffffffff1673ffffffffffffffffffffffffffffffffffffffff1681526020019081526020016000208054905042613ca891906156ff565b9050600a60008573ffffffffffffffffffffffffffffffffffffffff1673ffffffffffffffffffffffffffffffffffffffff1681526020019081526020016000208181548110613cfb57613cfa614dd6565b5b9060005260206000209060020201604051806060016040529081600082018054613d2490614afb565b80601f0160208091040260200160405190810160405280929190818152602001828054613d5090614afb565b8015613d9d5780601f10613d7257610100808354040283529160200191613d9d565b820191906000526020600020905b815481529060010190602001808311613d8057829003601f168201915b505050505081526020016001820160009054906101000a900473ffffffffffffffffffffffffffffffffffffffff1673ffffffffffffffffffffffffffffffffffffffff1673ffffffffffffffffffffffffffffffffffffffff1681526020016001820160149054906101000a900460ff1615151515815250509150816020015192505050919050565b505050565b505050565b6040518060800160405280600073ffffffffffffffffffffffffffffffffffffffff168152602001600073ffffffffffffffffffffffffffffffffffffffff16815260200160008152602001600081525090565b6040518060e00160405280600073ffffffffffffffffffffffffffffffffffffffff1681526020016060815260200160608152602001606081526020016060815260200160608152602001606081525090565b604051806060016040528060608152602001600073ffffffffffffffffffffffffffffffffffffffff1681526020016000151581525090565b6000604051905090565b600080fd5b600080fd5b600073ffffffffffffffffffffffffffffffffffffffff82169050919050565b6000613f5082613f25565b9050919050565b613f6081613f45565b8114613f6b57600080fd5b50565b600081359050613f7d81613f57565b92915050565b600060208284031215613f9957613f98613f1b565b5b6000613fa784828501613f6e565b91505092915050565b600081519050919050565b600082825260208201905092915050565b60005b83811015613fea578082015181840152602081019050613fcf565b83811115613ff9576000848401525b50505050565b6000601f19601f8301169050919050565b600061401b82613fb0565b6140258185613fbb565b9350614035818560208601613fcc565b61403e81613fff565b840191505092915050565b600060208201905081810360008301526140638184614010565b905092915050565b600061407682613f25565b9050919050565b6140868161406b565b811461409157600080fd5b50565b6000813590506140a38161407d565b92915050565b6000819050919050565b6140bc816140a9565b81146140c757600080fd5b50565b6000813590506140d9816140b3565b92915050565b600080604083850312156140f6576140f5613f1b565b5b600061410485828601614094565b9250506020614115858286016140ca565b9150509250929050565b60008115159050919050565b6141348161411f565b82525050565b600060208201905061414f600083018461412b565b92915050565b61415e816140a9565b82525050565b60006020820190506141796000830184614155565b92915050565b60008060006060848603121561419857614197613f1b565b5b60006141a686828701614094565b93505060206141b786828701614094565b92505060406141c8868287016140ca565b9150509250925092565b6000602082840312156141e8576141e7613f1b565b5b60006141f684828501614094565b91505092915050565b600081519050919050565b600082825260208201905092915050565b6000819050602082019050919050565b6142348161406b565b82525050565b600082825260208201905092915050565b600061425682613fb0565b614260818561423a565b9350614270818560208601613fcc565b61427981613fff565b840191505092915050565b600060e08301600083015161429c600086018261422b565b50602083015184820360208601526142b4828261424b565b915050604083015184820360408601526142ce828261424b565b915050606083015184820360608601526142e8828261424b565b91505060808301518482036080860152614302828261424b565b91505060a083015184820360a086015261431c828261424b565b91505060c083015184820360c0860152614336828261424b565b9150508091505092915050565b600061434f8383614284565b905092915050565b6000602082019050919050565b600061436f826141ff565b614379818561420a565b93508360208202850161438b8561421b565b8060005b858110156143c757848403895281516143a88582614343565b94506143b383614357565b925060208a0199505060018101905061438f565b50829750879550505050505092915050565b600060208201905081810360008301526143f38184614364565b905092915050565b600060ff82169050919050565b614411816143fb565b82525050565b600060208201905061442c6000830184614408565b92915050565b600080fd5b600080fd5b7f4e487b7100000000000000000000000000000000000000000000000000000000600052604160045260246000fd5b61447482613fff565b810181811067ffffffffffffffff821117156144935761449261443c565b5b80604052505050565b60006144a6613f11565b90506144b2828261446b565b919050565b600067ffffffffffffffff8211156144d2576144d161443c565b5b6144db82613fff565b9050602081019050919050565b82818337600083830152505050565b600061450a614505846144b7565b61449c565b90508281526020810184848401111561452657614525614437565b5b6145318482856144e8565b509392505050565b600082601f83011261454e5761454d614432565b5b813561455e8482602086016144f7565b91505092915050565b60006020828403121561457d5761457c613f1b565b5b600082013567ffffffffffffffff81111561459b5761459a613f20565b5b6145a784828501614539565b91505092915050565b600080600080600060a086880312156145cc576145cb613f1b565b5b600086013567ffffffffffffffff8111156145ea576145e9613f20565b5b6145f688828901614539565b955050602086013567ffffffffffffffff81111561461757614616613f20565b5b61462388828901614539565b945050604086013567ffffffffffffffff81111561464457614643613f20565b5b61465088828901614539565b935050606086013567ffffffffffffffff81111561467157614670613f20565b5b61467d88828901614539565b925050608086013567ffffffffffffffff81111561469e5761469d613f20565b5b6146aa88828901614539565b9150509295509295909350565b600081519050919050565b600082825260208201905092915050565b6000819050602082019050919050565b6146ec816140a9565b82525050565b608082016000820151614708600085018261422b565b50602082015161471b602085018261422b565b50604082015161472e60408501826146e3565b50606082015161474160608501826146e3565b50505050565b600061475383836146f2565b60808301905092915050565b6000602082019050919050565b6000614777826146b7565b61478181856146c2565b935061478c836146d3565b8060005b838110156147bd5781516147a48882614747565b97506147af8361475f565b925050600181019050614790565b5085935050505092915050565b600060208201905081810360008301526147e4818461476c565b905092915050565b600081519050919050565b600082825260208201905092915050565b6000819050602082019050919050565b6148218161411f565b82525050565b60006060830160008301518482036000860152614844828261424b565b9150506020830151614859602086018261422b565b50604083015161486c6040860182614818565b508091505092915050565b60006148838383614827565b905092915050565b6000602082019050919050565b60006148a3826147ec565b6148ad81856147f7565b9350836020820285016148bf85614808565b8060005b858110156148fb57848403895281516148dc8582614877565b94506148e78361488b565b925060208a019950506001810190506148c3565b50829750879550505050505092915050565b600060208201905081810360008301526149278184614898565b905092915050565b6000806040838503121561494657614945613f1b565b5b600061495485828601614094565b925050602061496585828601614094565b9150509250929050565b7f416d6f756e74206d7573742062652067726561746572207468616e2030000000600082015250565b60006149a5601d83613fbb565b91506149b08261496f565b602082019050919050565b600060208201905081810360008301526149d481614998565b9050919050565b7f43726561746f72206d7573742062652063726561746564206669727374000000600082015250565b6000614a11601d83613fbb565b9150614a1c826149db565b602082019050919050565b60006020820190508181036000830152614a4081614a04565b9050919050565b7f4e487b7100000000000000000000000000000000000000000000000000000000600052601160045260246000fd5b6000614a81826140a9565b9150614a8c836140a9565b9250827fffffffffffffffffffffffffffffffffffffffffffffffffffffffffffffffff03821115614ac157614ac0614a47565b5b828201905092915050565b7f4e487b7100000000000000000000000000000000000000000000000000000000600052602260045260246000fd5b60006002820490506001821680614b1357607f821691505b602082108103614b2657614b25614acc565b5b50919050565b600081549050614b3b81614afb565b9050919050565b60008190508160005260206000209050919050565b60006020601f8301049050919050565b600082821b905092915050565b600060088302614ba47fffffffffffffffffffffffffffffffffffffffffffffffffffffffffffffffff82614b67565b614bae8683614b67565b95508019841693508086168417925050509392505050565b6000819050919050565b6000614beb614be6614be1846140a9565b614bc6565b6140a9565b9050919050565b6000819050919050565b614c0583614bd0565b614c19614c1182614bf2565b848454614b74565b825550505050565b600090565b614c2e614c21565b614c39818484614bfc565b505050565b5b81811015614c5d57614c52600082614c26565b600181019050614c3f565b5050565b601f821115614ca257614c7381614b42565b614c7c84614b57565b81016020851015614c8b578190505b614c9f614c9785614b57565b830182614c3e565b50505b505050565b600082821c905092915050565b6000614cc560001984600802614ca7565b1980831691505092915050565b6000614cde8383614cb4565b9150826002028217905092915050565b818103614cfc575050614dd4565b614d0582614b2c565b67ffffffffffffffff811115614d1e57614d1d61443c565b5b614d288254614afb565b614d33828285614c61565b6000601f831160018114614d625760008415614d50578287015490505b614d5a8582614cd2565b865550614dcd565b601f198416614d7087614b42565b9650614d7b86614b42565b60005b82811015614da357848901548255600182019150600185019450602081019050614d7e565b86831015614dc05784890154614dbc601f891682614cb4565b8355505b6001600288020188555050505b5050505050505b565b7f4e487b7100000000000000000000000000000000000000000000000000000000600052603260045260246000fd5b6000614e10826140a9565b91507fffffffffffffffffffffffffffffffffffffffffffffffffffffffffffffffff8203614e4257614e41614a47565b5b600182019050919050565b7f5573657220616c72656164792065786973747300000000000000000000000000600082015250565b6000614e83601383613fbb565b9150614e8e82614e4d565b602082019050919050565b60006020820190508181036000830152614eb281614e76565b9050919050565b614ec282613fb0565b67ffffffffffffffff811115614edb57614eda61443c565b5b614ee58254614afb565b614ef0828285614c61565b600060209050601f831160018114614f235760008415614f11578287015190505b614f1b8582614cd2565b865550614f83565b601f198416614f3186614b42565b60005b82811015614f5957848901518255600182019150602085019450602081019050614f34565b86831015614f765784890151614f72601f891682614cb4565b8355505b6001600288020188555050505b505050505050565b7f43726561746f7220616c72656164792065786973747300000000000000000000600082015250565b6000614fc1601683613fbb565b9150614fcc82614f8b565b602082019050919050565b60006020820190508181036000830152614ff081614fb4565b9050919050565b7f45524332303a2064656372656173656420616c6c6f77616e63652062656c6f7760008201527f207a65726f000000000000000000000000000000000000000000000000000000602082015250565b6000615053602583613fbb565b915061505e82614ff7565b604082019050919050565b6000602082019050818103600083015261508281615046565b9050919050565b7f43726561746f7220646f6573206e6f7420657869737400000000000000000000600082015250565b60006150bf601683613fbb565b91506150ca82615089565b602082019050919050565b600060208201905081810360008301526150ee816150b2565b9050919050565b7f4f6e6c792063726561746f722063616e207570646174652063726561746f722060008201527f64657461696c7300000000000000000000000000000000000000000000000000602082015250565b6000615151602783613fbb565b915061515c826150f5565b604082019050919050565b6000602082019050818103600083015261518081615144565b9050919050565b7f4f6e6c792063726561746f722063616e2072756e206769766561776179000000600082015250565b60006151bd601d83613fbb565b91506151c882615187565b602082019050919050565b600060208201905081810360008301526151ec816151b0565b9050919050565b7f43726561746f7220686173206e6f207573657273000000000000000000000000600082015250565b6000615229601483613fbb565b9150615234826151f3565b602082019050919050565b600060208201905081810360008301526152588161521c565b9050919050565b7f45524332303a20617070726f76652066726f6d20746865207a65726f2061646460008201527f7265737300000000000000000000000000000000000000000000000000000000602082015250565b60006152bb602483613fbb565b91506152c68261525f565b604082019050919050565b600060208201905081810360008301526152ea816152ae565b9050919050565b7f45524332303a20617070726f766520746f20746865207a65726f20616464726560008201527f7373000000000000000000000000000000000000000000000000000000000000602082015250565b600061534d602283613fbb565b9150615358826152f1565b604082019050919050565b6000602082019050818103600083015261537c81615340565b9050919050565b7f45524332303a20696e73756666696369656e7420616c6c6f77616e6365000000600082015250565b60006153b9601d83613fbb565b91506153c482615383565b602082019050919050565b600060208201905081810360008301526153e8816153ac565b9050919050565b7f45524332303a207472616e736665722066726f6d20746865207a65726f20616460008201527f6472657373000000000000000000000000000000000000000000000000000000602082015250565b600061544b602583613fbb565b9150615456826153ef565b604082019050919050565b6000602082019050818103600083015261547a8161543e565b9050919050565b7f45524332303a207472616e7366657220746f20746865207a65726f206164647260008201527f6573730000000000000000000000000000000000000000000000000000000000602082015250565b60006154dd602383613fbb565b91506154e882615481565b604082019050919050565b6000602082019050818103600083015261550c816154d0565b9050919050565b7f45524332303a207472616e7366657220616d6f756e742065786365656473206260008201527f616c616e63650000000000000000000000000000000000000000000000000000602082015250565b600061556f602683613fbb565b915061557a82615513565b604082019050919050565b6000602082019050818103600083015261559e81615562565b9050919050565b7f45524332303a206d696e7420746f20746865207a65726f206164647265737300600082015250565b60006155db601f83613fbb565b91506155e6826155a5565b602082019050919050565b6000602082019050818103600083015261560a816155ce565b9050919050565b600081905092915050565b600061562782613fb0565b6156318185615611565b9350615641818560208601613fcc565b80840191505092915050565b6000615659828461561c565b915081905092915050565b7f4f6e6c792063726561746f722063616e206765742072616e646f6d2075736572600082015250565b600061569a602083613fbb565b91506156a582615664565b602082019050919050565b600060208201905081810360008301526156c98161568d565b9050919050565b7f4e487b7100000000000000000000000000000000000000000000000000000000600052601260045260246000fd5b600061570a826140a9565b9150615715836140a9565b925082615725576157246156d0565b5b82820690509291505056fea2646970667358221220dee0d5254728f8300be172937dc046d4ef763cb100b0b29a553f948e3e3e7abb64736f6c634300080f0033",
  "immutableReferences": {},
  "source": "// SPDX-License-Identifier: MIT\npragma solidity >=0.4.22 <0.9.0;\nimport \"./Token.sol\";\n\n/**\nCreate a donation application where users can donate cryptocurrency to their favourite content creators(test cryptocurrency is fine) .\nCreate separate login and dashboard pages for content creators to update their information like photo, email id, website link and social media ids.\nUsers of content creators should have the ability to login to the portal and browse among existing content creators according to their choice.\nUsers should be able to send cryptocurrency(Neo/Ether/BTC,etc.) to the content creator after choosing one from existing content creators.\nUser Analytics and Creator Analytics should be included in a separate page. Logged in User can see only his personal analytics(ie. How much he has donated to which creator)\nCreator Analytics should only be visible to creators which will include details regarding donation received from individual users\nIf an entity is both a creator and a user, then he shall be able to see both creator analytics and user analytics. \n */\n\ncontract CFP is CreatorToken {\n    struct User {\n        string name;\n        address user;\n        bool isCreator;\n    }\n    struct Creator {\n        address creator;\n        string name;\n        string email;\n        string website;\n        string socialMedia;\n        string photo;\n        string category;\n    }\n    struct Donation {\n        address to;\n        address from;\n        uint256 amount;\n        uint256 timestamp;\n    }\n    mapping(address => Donation[]) userAddressDonationsMap;\n    mapping(address => mapping(address => uint256)) amountUserDonatedToCreatorMap;\n    mapping(address => Creator[]) userAddressToCreators;\n\n    mapping(address => Donation[]) creatorAddressDonationsMap;\n    mapping(address => mapping(address => uint256)) amountCreatorGotFromUsersMap;\n    mapping(address => User[]) creatorAddressToUsers;\n\n    mapping(address => User) userAddressUserMap;\n    mapping(address => bool) userExists;\n\n    mapping(address => Creator) creatorAddressCreatorMap;\n    address[] creatorAddresses;\n\n    mapping(address => bool) creatorExists;\n\n    // Balances\n    mapping(address => uint256) creatorAddressBalanceMap;\n\n    constructor() {}\n\n    function compareStrings(string memory a, string memory b)\n        private\n        pure\n        returns (bool)\n    {\n        return (keccak256(abi.encodePacked((a))) ==\n            keccak256(abi.encodePacked((b))));\n    }\n\n    function getAllCreators() public view returns (Creator[] memory) {\n        Creator[] memory creators = new Creator[](creatorAddresses.length);\n        for (uint256 i = 0; i < creatorAddresses.length; i++) {\n            creators[i] = creatorAddressCreatorMap[creatorAddresses[i]];\n        }\n        return creators;\n    }\n\n    function getCreatorsByCategory(string memory category)\n        public\n        view\n        returns (Creator[] memory)\n    {\n        Creator[] memory creators = new Creator[](creatorAddresses.length);\n        for (uint256 i = 0; i < creatorAddresses.length; i++) {\n            if (\n                compareStrings(\n                    creatorAddressCreatorMap[creatorAddresses[i]].category,\n                    category\n                )\n            ) {\n                creators[i] = creatorAddressCreatorMap[creatorAddresses[i]];\n            }\n        }\n        return creators;\n    }\n\n    function getCreatorDonors(address creatorAddress)\n        public\n        view\n        returns (User[] memory)\n    {\n        User[] memory users = new User[](\n            creatorAddressToUsers[creatorAddress].length\n        );\n        for (\n            uint256 i = 0;\n            i < creatorAddressToUsers[creatorAddress].length;\n            i++\n        ) {\n            users[i] = creatorAddressToUsers[creatorAddress][i];\n        }\n        return users;\n    }\n\n    function getUserCreators(address userAddress)\n        public\n        view\n        returns (Creator[] memory)\n    {\n        Creator[] memory creators = new Creator[](\n            userAddressToCreators[userAddress].length\n        );\n        for (\n            uint256 i = 0;\n            i < userAddressToCreators[userAddress].length;\n            i++\n        ) {\n            creators[i] = userAddressToCreators[userAddress][i];\n        }\n        return creators;\n    }\n\n    function createCreator(\n        string memory _name,\n        string memory _email,\n        string memory _website,\n        string memory _socialMedia,\n        string memory _photo\n    ) public returns (bool) {\n        require(!creatorExists[msg.sender], \"Creator already exists\");\n\n        Creator memory newCreator;\n        newCreator.creator = msg.sender;\n        newCreator.name = _name;\n        newCreator.email = _email;\n        newCreator.website = _website;\n        newCreator.socialMedia = _socialMedia;\n        newCreator.photo = _photo;\n        creatorAddressCreatorMap[msg.sender] = newCreator;\n        creatorExists[msg.sender] = true;\n        creatorAddresses.push(msg.sender);\n\n        if (userExists[msg.sender]) {\n            userAddressUserMap[msg.sender].isCreator = true;\n        } else {\n            User memory newUser;\n            newUser.name = _name;\n            newUser.user = msg.sender;\n            newUser.isCreator = true;\n            userAddressUserMap[msg.sender] = newUser;\n            userExists[msg.sender] = true;\n        }\n        return true;\n    }\n\n    function updateCreator(\n        string memory _name,\n        string memory _email,\n        string memory _website,\n        string memory _socialMedia,\n        string memory _photo\n    ) public returns (bool) {\n        require(creatorExists[msg.sender], \"Creator does not exist\");\n        require(\n            msg.sender == creatorAddressCreatorMap[msg.sender].creator,\n            \"Only creator can update creator details\"\n        );\n        Creator memory newCreator;\n        newCreator.creator = msg.sender;\n        newCreator.name = _name;\n        newCreator.email = _email;\n        newCreator.website = _website;\n        newCreator.socialMedia = _socialMedia;\n        newCreator.photo = _photo;\n        creatorAddressCreatorMap[msg.sender] = newCreator;\n        return true;\n    }\n\n    function getUserDonations(address userAddress)\n        public\n        view\n        returns (Donation[] memory)\n    {\n        Donation[] memory donations = new Donation[](\n            userAddressDonationsMap[userAddress].length\n        );\n        for (\n            uint256 i = 0;\n            i < userAddressDonationsMap[userAddress].length;\n            i++\n        ) {\n            donations[i] = userAddressDonationsMap[userAddress][i];\n        }\n        return donations;\n    }\n\n    function getCreatorDonations(address creatorAddress)\n        public\n        view\n        returns (Donation[] memory)\n    {\n        Donation[] memory donations = new Donation[](\n            creatorAddressDonationsMap[creatorAddress].length\n        );\n\n        for (\n            uint256 i = 0;\n            i < creatorAddressDonationsMap[creatorAddress].length;\n            i++\n        ) {\n            donations[i] = creatorAddressDonationsMap[creatorAddress][i];\n        }\n        return donations;\n    }\n\n    function createUser(string memory _name) public returns (bool) {\n        require(!userExists[msg.sender], \"User already exists\");\n\n        User memory newUser;\n        newUser.name = _name;\n        newUser.user = msg.sender;\n        newUser.isCreator = false;\n        userAddressUserMap[msg.sender] = newUser;\n        userExists[msg.sender] = true;\n\n        _mint(msg.sender, 1000);\n\n        return true;\n    }\n\n    function donate(address payable _to) public payable {\n        require(msg.value > 0, \"Amount must be greater than 0\");\n\n        // require(!userExists[msg.sender], \"User must be created first\");\n        require(creatorExists[_to], \"Creator must be created first\");\n\n        // First Transfer the amount\n        _to.transfer(msg.value);\n        creatorAddressBalanceMap[_to] += msg.value;\n        // updating user has donated to creator\n        amountUserDonatedToCreatorMap[msg.sender][_to] += msg.value;\n        // updating creator has received from user\n        amountCreatorGotFromUsersMap[_to][msg.sender] += msg.value;\n\n        userAddressToCreators[msg.sender].push(creatorAddressCreatorMap[_to]);\n        creatorAddressToUsers[_to].push(userAddressUserMap[msg.sender]);\n\n        // updating user's donation history\n        Donation memory newDonation;\n        newDonation.to = _to;\n        newDonation.from = msg.sender;\n        newDonation.amount = msg.value;\n        newDonation.timestamp = block.timestamp;\n\n        userAddressDonationsMap[msg.sender].push(newDonation);\n        creatorAddressDonationsMap[_to].push(newDonation);\n    }\n\n    // creatorAddressToUsers get random user given the creator address\n    function getRandomUserAddress(address creatorAddress)\n        private\n        view\n        returns (address)\n    {\n        require(\n            msg.sender == creatorAddress,\n            \"Only creator can get random user\"\n        );\n        require(creatorExists[creatorAddress], \"Creator does not exist\");\n        require(\n            creatorAddressToUsers[creatorAddress].length > 0,\n            \"Creator has no users\"\n        );\n        User memory user;\n        uint256 randomIndex = uint256(\n            block.timestamp %\n                uint256(creatorAddressToUsers[creatorAddress].length)\n        );\n        user = creatorAddressToUsers[creatorAddress][randomIndex];\n        return user.user;\n    }\n\n    // creators get the random creator and then transfer them the ERC20 tokens this is like giveaway\n    function runGiveaway(address creatorAddress) public {\n        require(msg.sender == creatorAddress, \"Only creator can run giveaway\");\n        require(creatorExists[creatorAddress], \"Creator does not exist\");\n        require(\n            creatorAddressToUsers[creatorAddress].length > 0,\n            \"Creator has no users\"\n        );\n        address randomUser = getRandomUserAddress(creatorAddress);\n        _mint(payable(randomUser), 1000);\n    }\n}\n",
  "sourcePath": "/Users/pavan/Desktop/hackathon/smart-contracts/contracts/CFP.sol",
  "compiler": {
    "name": "solc",
    "version": "0.8.15+commit.e14f2714.Emscripten.clang"
  },
  "schemaVersion": "3.4.8",
  "updatedAt": "2022-07-24T02:21:15.361Z",
  "devdoc": {
    "kind": "dev",
    "methods": {
      "allowance(address,address)": {
        "details": "See {IERC20-allowance}."
      },
      "approve(address,uint256)": {
        "details": "See {IERC20-approve}. NOTE: If `amount` is the maximum `uint256`, the allowance is not updated on `transferFrom`. This is semantically equivalent to an infinite approval. Requirements: - `spender` cannot be the zero address."
      },
      "balanceOf(address)": {
        "details": "See {IERC20-balanceOf}."
      },
      "decimals()": {
        "details": "Returns the number of decimals used to get its user representation. For example, if `decimals` equals `2`, a balance of `505` tokens should be displayed to a user as `5.05` (`505 / 10 ** 2`). Tokens usually opt for a value of 18, imitating the relationship between Ether and Wei. This is the value {ERC20} uses, unless this function is overridden; NOTE: This information is only used for _display_ purposes: it in no way affects any of the arithmetic of the contract, including {IERC20-balanceOf} and {IERC20-transfer}."
      },
      "decreaseAllowance(address,uint256)": {
        "details": "Atomically decreases the allowance granted to `spender` by the caller. This is an alternative to {approve} that can be used as a mitigation for problems described in {IERC20-approve}. Emits an {Approval} event indicating the updated allowance. Requirements: - `spender` cannot be the zero address. - `spender` must have allowance for the caller of at least `subtractedValue`."
      },
      "increaseAllowance(address,uint256)": {
        "details": "Atomically increases the allowance granted to `spender` by the caller. This is an alternative to {approve} that can be used as a mitigation for problems described in {IERC20-approve}. Emits an {Approval} event indicating the updated allowance. Requirements: - `spender` cannot be the zero address."
      },
      "name()": {
        "details": "Returns the name of the token."
      },
      "symbol()": {
        "details": "Returns the symbol of the token, usually a shorter version of the name."
      },
      "totalSupply()": {
        "details": "See {IERC20-totalSupply}."
      },
      "transfer(address,uint256)": {
        "details": "See {IERC20-transfer}. Requirements: - `to` cannot be the zero address. - the caller must have a balance of at least `amount`."
      },
      "transferFrom(address,address,uint256)": {
        "details": "See {IERC20-transferFrom}. Emits an {Approval} event indicating the updated allowance. This is not required by the EIP. See the note at the beginning of {ERC20}. NOTE: Does not update the allowance if the current allowance is the maximum `uint256`. Requirements: - `from` and `to` cannot be the zero address. - `from` must have a balance of at least `amount`. - the caller must have allowance for ``from``'s tokens of at least `amount`."
      }
    },
    "version": 1
  },
  "userdoc": {
    "kind": "user",
    "methods": {},
    "notice": "Create a donation application where users can donate cryptocurrency to their favourite content creators(test cryptocurrency is fine) . Create separate login and dashboard pages for content creators to update their information like photo, email id, website link and social media ids. Users of content creators should have the ability to login to the portal and browse among existing content creators according to their choice. Users should be able to send cryptocurrency(Neo/Ether/BTC,etc.) to the content creator after choosing one from existing content creators. User Analytics and Creator Analytics should be included in a separate page. Logged in User can see only his personal analytics(ie. How much he has donated to which creator) Creator Analytics should only be visible to creators which will include details regarding donation received from individual users If an entity is both a creator and a user, then he shall be able to see both creator analytics and user analytics. ",
    "version": 1
  }
}