{
  "contractName": "CFPARCHIVE",
  "abi": [
    {
      "inputs": [],
      "stateMutability": "nonpayable",
      "type": "constructor"
    },
    {
      "anonymous": false,
      "inputs": [
        {
          "indexed": true,
          "internalType": "address",
          "name": "creator",
          "type": "address"
        },
        {
          "indexed": true,
          "internalType": "string",
          "name": "name",
          "type": "string"
        },
        {
          "indexed": false,
          "internalType": "string",
          "name": "photoUrl",
          "type": "string"
        },
        {
          "indexed": false,
          "internalType": "string",
          "name": "email",
          "type": "string"
        },
        {
          "indexed": false,
          "internalType": "string",
          "name": "website",
          "type": "string"
        },
        {
          "indexed": false,
          "internalType": "string",
          "name": "socialMedia",
          "type": "string"
        },
        {
          "indexed": true,
          "internalType": "uint256",
          "name": "raisedAmount",
          "type": "uint256"
        }
      ],
      "name": "CreatorCreated",
      "type": "event"
    },
    {
      "anonymous": false,
      "inputs": [
        {
          "indexed": true,
          "internalType": "address",
          "name": "from",
          "type": "address"
        },
        {
          "indexed": true,
          "internalType": "address",
          "name": "to",
          "type": "address"
        },
        {
          "indexed": true,
          "internalType": "uint256",
          "name": "amount",
          "type": "uint256"
        },
        {
          "indexed": false,
          "internalType": "uint256",
          "name": "timestamp",
          "type": "uint256"
        }
      ],
      "name": "DonationCreated",
      "type": "event"
    },
    {
      "anonymous": false,
      "inputs": [
        {
          "components": [
            {
              "internalType": "address",
              "name": "creator",
              "type": "address"
            },
            {
              "internalType": "string",
              "name": "name",
              "type": "string"
            },
            {
              "internalType": "string",
              "name": "photoUrl",
              "type": "string"
            },
            {
              "internalType": "string",
              "name": "email",
              "type": "string"
            },
            {
              "internalType": "string",
              "name": "website",
              "type": "string"
            },
            {
              "internalType": "string",
              "name": "socialMedia",
              "type": "string"
            },
            {
              "internalType": "uint256",
              "name": "raisedAmount",
              "type": "uint256"
            }
          ],
          "indexed": false,
          "internalType": "struct CFPARCHIVE.Creator",
          "name": "creator",
          "type": "tuple"
        }
      ],
      "name": "NewCreator",
      "type": "event"
    },
    {
      "anonymous": false,
      "inputs": [
        {
          "components": [
            {
              "internalType": "address",
              "name": "from",
              "type": "address"
            },
            {
              "internalType": "address",
              "name": "to",
              "type": "address"
            },
            {
              "internalType": "uint256",
              "name": "amount",
              "type": "uint256"
            }
          ],
          "indexed": false,
          "internalType": "struct CFPARCHIVE.Donation",
          "name": "donation",
          "type": "tuple"
        }
      ],
      "name": "NewDonation",
      "type": "event"
    },
    {
      "anonymous": false,
      "inputs": [
        {
          "components": [
            {
              "internalType": "address",
              "name": "user",
              "type": "address"
            },
            {
              "internalType": "string",
              "name": "name",
              "type": "string"
            },
            {
              "internalType": "bool",
              "name": "isCreator",
              "type": "bool"
            },
            {
              "internalType": "uint256",
              "name": "totalDonatedAmount",
              "type": "uint256"
            }
          ],
          "indexed": false,
          "internalType": "struct CFPARCHIVE.User",
          "name": "user",
          "type": "tuple"
        }
      ],
      "name": "NewUser",
      "type": "event"
    },
    {
      "anonymous": false,
      "inputs": [
        {
          "indexed": true,
          "internalType": "address",
          "name": "user",
          "type": "address"
        },
        {
          "indexed": true,
          "internalType": "string",
          "name": "name",
          "type": "string"
        },
        {
          "indexed": false,
          "internalType": "bool",
          "name": "isCreator",
          "type": "bool"
        },
        {
          "indexed": true,
          "internalType": "uint256",
          "name": "totalDonatedAmount",
          "type": "uint256"
        }
      ],
      "name": "UserCreated",
      "type": "event"
    },
    {
      "inputs": [
        {
          "internalType": "address",
          "name": "",
          "type": "address"
        }
      ],
      "name": "creatorExists",
      "outputs": [
        {
          "internalType": "bool",
          "name": "",
          "type": "bool"
        }
      ],
      "stateMutability": "view",
      "type": "function"
    },
    {
      "inputs": [
        {
          "internalType": "address",
          "name": "",
          "type": "address"
        },
        {
          "internalType": "uint256",
          "name": "",
          "type": "uint256"
        }
      ],
      "name": "creatorToUsersDonated",
      "outputs": [
        {
          "internalType": "address",
          "name": "",
          "type": "address"
        }
      ],
      "stateMutability": "view",
      "type": "function"
    },
    {
      "inputs": [
        {
          "internalType": "address",
          "name": "",
          "type": "address"
        },
        {
          "internalType": "address",
          "name": "",
          "type": "address"
        }
      ],
      "name": "creatorToUsersToAmountDonated",
      "outputs": [
        {
          "internalType": "uint256",
          "name": "",
          "type": "uint256"
        }
      ],
      "stateMutability": "view",
      "type": "function"
    },
    {
      "inputs": [],
      "name": "owner",
      "outputs": [
        {
          "internalType": "address",
          "name": "",
          "type": "address"
        }
      ],
      "stateMutability": "view",
      "type": "function"
    },
    {
      "inputs": [
        {
          "internalType": "address",
          "name": "",
          "type": "address"
        }
      ],
      "name": "userAndCreatorExists",
      "outputs": [
        {
          "internalType": "bool",
          "name": "",
          "type": "bool"
        }
      ],
      "stateMutability": "view",
      "type": "function"
    },
    {
      "inputs": [
        {
          "internalType": "address",
          "name": "",
          "type": "address"
        }
      ],
      "name": "userExists",
      "outputs": [
        {
          "internalType": "bool",
          "name": "",
          "type": "bool"
        }
      ],
      "stateMutability": "view",
      "type": "function"
    },
    {
      "inputs": [
        {
          "internalType": "address",
          "name": "",
          "type": "address"
        },
        {
          "internalType": "uint256",
          "name": "",
          "type": "uint256"
        }
      ],
      "name": "userToCampaignsDonated",
      "outputs": [
        {
          "internalType": "uint256",
          "name": "",
          "type": "uint256"
        }
      ],
      "stateMutability": "view",
      "type": "function"
    },
    {
      "inputs": [
        {
          "internalType": "address",
          "name": "",
          "type": "address"
        },
        {
          "internalType": "uint256",
          "name": "",
          "type": "uint256"
        }
      ],
      "name": "userToCreatorsDonated",
      "outputs": [
        {
          "internalType": "address",
          "name": "",
          "type": "address"
        }
      ],
      "stateMutability": "view",
      "type": "function"
    },
    {
      "inputs": [
        {
          "internalType": "address",
          "name": "",
          "type": "address"
        },
        {
          "internalType": "address",
          "name": "",
          "type": "address"
        }
      ],
      "name": "userToCreatorsToAmountDonated",
      "outputs": [
        {
          "internalType": "uint256",
          "name": "",
          "type": "uint256"
        }
      ],
      "stateMutability": "view",
      "type": "function"
    },
    {
      "inputs": [
        {
          "internalType": "string",
          "name": "_name",
          "type": "string"
        },
        {
          "internalType": "string",
          "name": "_description",
          "type": "string"
        },
        {
          "internalType": "uint256",
          "name": "_targetMoney",
          "type": "uint256"
        },
        {
          "internalType": "uint256",
          "name": "_startTime",
          "type": "uint256"
        },
        {
          "internalType": "uint256",
          "name": "_endTime",
          "type": "uint256"
        }
      ],
      "name": "createCampaign",
      "outputs": [],
      "stateMutability": "nonpayable",
      "type": "function"
    },
    {
      "inputs": [
        {
          "internalType": "uint256",
          "name": "_campaignId",
          "type": "uint256"
        }
      ],
      "name": "deleteCampaign",
      "outputs": [],
      "stateMutability": "nonpayable",
      "type": "function"
    },
    {
      "inputs": [
        {
          "internalType": "uint256",
          "name": "_campaignId",
          "type": "uint256"
        },
        {
          "internalType": "bool",
          "name": "_isActive",
          "type": "bool"
        }
      ],
      "name": "changeCampaignStatus",
      "outputs": [],
      "stateMutability": "nonpayable",
      "type": "function"
    },
    {
      "inputs": [
        {
          "internalType": "address",
          "name": "_of",
          "type": "address"
        }
      ],
      "name": "getCampaignsOf",
      "outputs": [
        {
          "components": [
            {
              "internalType": "uint256",
              "name": "id",
              "type": "uint256"
            },
            {
              "internalType": "string",
              "name": "name",
              "type": "string"
            },
            {
              "internalType": "address",
              "name": "createdBy",
              "type": "address"
            },
            {
              "internalType": "string",
              "name": "description",
              "type": "string"
            },
            {
              "internalType": "uint256",
              "name": "targetMoney",
              "type": "uint256"
            },
            {
              "internalType": "uint256",
              "name": "raisedMoney",
              "type": "uint256"
            },
            {
              "internalType": "uint256",
              "name": "startTime",
              "type": "uint256"
            },
            {
              "internalType": "uint256",
              "name": "endTime",
              "type": "uint256"
            },
            {
              "internalType": "bool",
              "name": "isActive",
              "type": "bool"
            }
          ],
          "internalType": "struct CFPARCHIVE.Campaign[3]",
          "name": "",
          "type": "tuple[3]"
        }
      ],
      "stateMutability": "view",
      "type": "function"
    },
    {
      "inputs": [
        {
          "internalType": "uint256",
          "name": "_campaignId",
          "type": "uint256"
        }
      ],
      "name": "getCreator",
      "outputs": [
        {
          "internalType": "address",
          "name": "",
          "type": "address"
        }
      ],
      "stateMutability": "view",
      "type": "function"
    },
    {
      "inputs": [
        {
          "internalType": "uint256",
          "name": "_campaignId",
          "type": "uint256"
        }
      ],
      "name": "donateToCampaigns",
      "outputs": [],
      "stateMutability": "payable",
      "type": "function"
    },
    {
      "inputs": [
        {
          "internalType": "string",
          "name": "name",
          "type": "string"
        },
        {
          "internalType": "string",
          "name": "photoUrl",
          "type": "string"
        },
        {
          "internalType": "string",
          "name": "email",
          "type": "string"
        },
        {
          "internalType": "string",
          "name": "website",
          "type": "string"
        },
        {
          "internalType": "string",
          "name": "socialMedia",
          "type": "string"
        }
      ],
      "name": "createCreator",
      "outputs": [],
      "stateMutability": "nonpayable",
      "type": "function"
    },
    {
      "inputs": [
        {
          "internalType": "string",
          "name": "name",
          "type": "string"
        }
      ],
      "name": "createUser",
      "outputs": [],
      "stateMutability": "nonpayable",
      "type": "function"
    },
    {
      "inputs": [
        {
          "internalType": "address payable",
          "name": "creator",
          "type": "address"
        }
      ],
      "name": "donate",
      "outputs": [],
      "stateMutability": "payable",
      "type": "function"
    },
    {
      "inputs": [
        {
          "internalType": "address",
          "name": "creator",
          "type": "address"
        }
      ],
      "name": "getCreatorDetails",
      "outputs": [
        {
          "internalType": "string",
          "name": "name",
          "type": "string"
        },
        {
          "internalType": "string",
          "name": "photoUrl",
          "type": "string"
        },
        {
          "internalType": "string",
          "name": "email",
          "type": "string"
        },
        {
          "internalType": "string",
          "name": "website",
          "type": "string"
        },
        {
          "internalType": "string",
          "name": "socialMedia",
          "type": "string"
        },
        {
          "internalType": "uint256",
          "name": "raisedAmount",
          "type": "uint256"
        }
      ],
      "stateMutability": "view",
      "type": "function"
    },
    {
      "inputs": [
        {
          "internalType": "address",
          "name": "user",
          "type": "address"
        }
      ],
      "name": "getUserDetails",
      "outputs": [
        {
          "internalType": "string",
          "name": "name",
          "type": "string"
        },
        {
          "internalType": "bool",
          "name": "isCreator",
          "type": "bool"
        },
        {
          "internalType": "uint256",
          "name": "totalDonatedAmount",
          "type": "uint256"
        }
      ],
      "stateMutability": "view",
      "type": "function"
    },
    {
      "inputs": [],
      "name": "getCreatorDonationDetails",
      "outputs": [
        {
          "internalType": "address[]",
          "name": "",
          "type": "address[]"
        },
        {
          "internalType": "uint256[]",
          "name": "",
          "type": "uint256[]"
        }
      ],
      "stateMutability": "view",
      "type": "function"
    },
    {
      "inputs": [
        {
          "internalType": "address",
          "name": "_user",
          "type": "address"
        }
      ],
      "name": "getUserDonationDetails",
      "outputs": [
        {
          "internalType": "address[]",
          "name": "",
          "type": "address[]"
        },
        {
          "internalType": "uint256[]",
          "name": "",
          "type": "uint256[]"
        }
      ],
      "stateMutability": "view",
      "type": "function"
    }
  ],
  "bytecode": "0x608060405234801561001057600080fd5b50336000806101000a81548173ffffffffffffffffffffffffffffffffffffffff021916908373ffffffffffffffffffffffffffffffffffffffff16021790555061477c806100606000396000f3fe6080604052600436106101345760003560e01c80637394d70e116100ab578063a6fb107c1161006f578063a6fb107c14610466578063b5c89219146104a3578063cc3d967b146104cc578063d48e638a1461050b578063ea41c88f14610548578063ff2b7f181461058a57610134565b80637394d70e1461036f57806375970193146103985780638da5cb5b146103c157806399b843fe146103ec578063a5585c1e1461042957610134565b8063115a460f116100fd578063115a460f146102495780631ca1c977146102865780632840370d146102c3578063507ffba5146103015780635fd937db1461032a5780636433e07b1461034657610134565b8062362a9514610139578063029e634b146101555780630bceca8a146101925780630e666e49146101cf5780631036fb3b1461020c575b600080fd5b610153600480360381019061014e9190613072565b6105b6565b005b34801561016157600080fd5b5061017c600480360381019061017791906130dd565b6109c1565b6040516101899190613125565b60405180910390f35b34801561019e57600080fd5b506101b960048036038101906101b49190613176565b6109e1565b6040516101c691906131c5565b60405180910390f35b3480156101db57600080fd5b506101f660048036038101906101f191906130dd565b610a2f565b6040516102039190613125565b60405180910390f35b34801561021857600080fd5b50610233600480360381019061022e9190613176565b610a4f565b60405161024091906131c5565b60405180910390f35b34801561025557600080fd5b50610270600480360381019061026b91906130dd565b610a9d565b60405161027d9190613125565b60405180910390f35b34801561029257600080fd5b506102ad60048036038101906102a891906130dd565b610abd565b6040516102ba9190613428565b60405180910390f35b3480156102cf57600080fd5b506102ea60048036038101906102e591906130dd565b610da2565b6040516102f89291906135a8565b60405180910390f35b34801561030d57600080fd5b5061032860048036038101906103239190613714565b611102565b005b610344600480360381019061033f919061375d565b6113c5565b005b34801561035257600080fd5b5061036d6004803603810190610368919061378a565b611b0b565b005b34801561037b57600080fd5b50610396600480360381019061039191906138bd565b611d21565b005b3480156103a457600080fd5b506103bf60048036038101906103ba919061375d565b611ec5565b005b3480156103cd57600080fd5b506103d66120d3565b6040516103e391906131c5565b60405180910390f35b3480156103f857600080fd5b50610413600480360381019061040e91906138fd565b6120f7565b604051610420919061394c565b60405180910390f35b34801561043557600080fd5b50610450600480360381019061044b9190613176565b61211c565b60405161045d919061394c565b60405180910390f35b34801561047257600080fd5b5061048d600480360381019061048891906138fd565b61214d565b60405161049a919061394c565b60405180910390f35b3480156104af57600080fd5b506104ca60048036038101906104c59190613967565b612172565b005b3480156104d857600080fd5b506104f360048036038101906104ee91906130dd565b61253b565b60405161050293929190613a64565b60405180910390f35b34801561051757600080fd5b50610532600480360381019061052d919061375d565b6126ae565b60405161053f91906131c5565b60405180910390f35b34801561055457600080fd5b5061056f600480360381019061056a91906130dd565b61277a565b60405161058196959493929190613aa2565b60405180910390f35b34801561059657600080fd5b5061059f612be2565b6040516105ad9291906135a8565b60405180910390f35b600034116105f9576040517f08c379a00000000000000000000000000000000000000000000000000000000081526004016105f090613b72565b60405180910390fd5b34600260003373ffffffffffffffffffffffffffffffffffffffff1673ffffffffffffffffffffffffffffffffffffffff168152602001908152602001600020600301600082825461064b9190613bc1565b9250508190555034600160008373ffffffffffffffffffffffffffffffffffffffff1673ffffffffffffffffffffffffffffffffffffffff16815260200190815260200160002060060160008282546106a49190613bc1565b9250508190555034600360008373ffffffffffffffffffffffffffffffffffffffff1673ffffffffffffffffffffffffffffffffffffffff16815260200190815260200160002060003373ffffffffffffffffffffffffffffffffffffffff1673ffffffffffffffffffffffffffffffffffffffff16815260200190815260200160002060008282546107379190613bc1565b92505081905550600460008273ffffffffffffffffffffffffffffffffffffffff1673ffffffffffffffffffffffffffffffffffffffff168152602001908152602001600020339080600181540180825580915050600190039060005260206000200160009091909190916101000a81548173ffffffffffffffffffffffffffffffffffffffff021916908373ffffffffffffffffffffffffffffffffffffffff16021790555034600560003373ffffffffffffffffffffffffffffffffffffffff1673ffffffffffffffffffffffffffffffffffffffff16815260200190815260200160002060008373ffffffffffffffffffffffffffffffffffffffff1673ffffffffffffffffffffffffffffffffffffffff168152602001908152602001600020600082825461086a9190613bc1565b92505081905550600660003373ffffffffffffffffffffffffffffffffffffffff1673ffffffffffffffffffffffffffffffffffffffff168152602001908152602001600020819080600181540180825580915050600190039060005260206000200160009091909190916101000a81548173ffffffffffffffffffffffffffffffffffffffff021916908373ffffffffffffffffffffffffffffffffffffffff1602179055508073ffffffffffffffffffffffffffffffffffffffff166108fc349081150290604051600060405180830381858888f19350505050158015610957573d6000803e3d6000fd5b50348173ffffffffffffffffffffffffffffffffffffffff163373ffffffffffffffffffffffffffffffffffffffff167f01de8796b07f8424a9dfc77326e86a5f4af8c530b04abfaf372a67a602a26103426040516109b6919061394c565b60405180910390a450565b60096020528060005260406000206000915054906101000a900460ff1681565b600460205281600052604060002081815481106109fd57600080fd5b906000526020600020016000915091509054906101000a900473ffffffffffffffffffffffffffffffffffffffff1681565b60086020528060005260406000206000915054906101000a900460ff1681565b60066020528160005260406000208181548110610a6b57600080fd5b906000526020600020016000915091509054906101000a900473ffffffffffffffffffffffffffffffffffffffff1681565b60076020528060005260406000206000915054906101000a900460ff1681565b610ac5612ed2565b600760008373ffffffffffffffffffffffffffffffffffffffff1673ffffffffffffffffffffffffffffffffffffffff16815260200190815260200160002060009054906101000a900460ff16610b51576040517f08c379a0000000000000000000000000000000000000000000000000000000008152600401610b4890613c63565b60405180910390fd5b600d60008373ffffffffffffffffffffffffffffffffffffffff1673ffffffffffffffffffffffffffffffffffffffff168152602001908152602001600020600380602002604051908101604052809291906000905b82821015610d97578382600902016040518061012001604052908160008201548152602001600182018054610bdb90613cb2565b80601f0160208091040260200160405190810160405280929190818152602001828054610c0790613cb2565b8015610c545780601f10610c2957610100808354040283529160200191610c54565b820191906000526020600020905b815481529060010190602001808311610c3757829003601f168201915b505050505081526020016002820160009054906101000a900473ffffffffffffffffffffffffffffffffffffffff1673ffffffffffffffffffffffffffffffffffffffff1673ffffffffffffffffffffffffffffffffffffffff168152602001600382018054610cc390613cb2565b80601f0160208091040260200160405190810160405280929190818152602001828054610cef90613cb2565b8015610d3c5780601f10610d1157610100808354040283529160200191610d3c565b820191906000526020600020905b815481529060010190602001808311610d1f57829003601f168201915b50505050508152602001600482015481526020016005820154815260200160068201548152602001600782015481526020016008820160009054906101000a900460ff16151515158152505081526020019060010190610ba7565b505050509050919050565b606080600073ffffffffffffffffffffffffffffffffffffffff168373ffffffffffffffffffffffffffffffffffffffff1603610e14576040517f08c379a0000000000000000000000000000000000000000000000000000000008152600401610e0b90613d2f565b60405180910390fd5b6000600660008573ffffffffffffffffffffffffffffffffffffffff1673ffffffffffffffffffffffffffffffffffffffff16815260200190815260200160002080549050905060008167ffffffffffffffff811115610e7757610e766135e9565b5b604051908082528060200260200182016040528015610ea55781602001602082028036833780820191505090505b50905060008267ffffffffffffffff811115610ec457610ec36135e9565b5b604051908082528060200260200182016040528015610ef25781602001602082028036833780820191505090505b50905060005b838110156110f357600660008873ffffffffffffffffffffffffffffffffffffffff1673ffffffffffffffffffffffffffffffffffffffff1681526020019081526020016000208181548110610f5157610f50613d4f565b5b9060005260206000200160009054906101000a900473ffffffffffffffffffffffffffffffffffffffff16838281518110610f8f57610f8e613d4f565b5b602002602001019073ffffffffffffffffffffffffffffffffffffffff16908173ffffffffffffffffffffffffffffffffffffffff1681525050600560008873ffffffffffffffffffffffffffffffffffffffff1673ffffffffffffffffffffffffffffffffffffffff1681526020019081526020016000206000600660008a73ffffffffffffffffffffffffffffffffffffffff1673ffffffffffffffffffffffffffffffffffffffff168152602001908152602001600020838154811061105b5761105a613d4f565b5b9060005260206000200160009054906101000a900473ffffffffffffffffffffffffffffffffffffffff1673ffffffffffffffffffffffffffffffffffffffff1673ffffffffffffffffffffffffffffffffffffffff168152602001908152602001600020548282815181106110d4576110d3613d4f565b5b60200260200101818152505080806110eb90613d7e565b915050610ef8565b50818194509450505050915091565b600073ffffffffffffffffffffffffffffffffffffffff16600260003373ffffffffffffffffffffffffffffffffffffffff1673ffffffffffffffffffffffffffffffffffffffff16815260200190815260200160002060000160009054906101000a900473ffffffffffffffffffffffffffffffffffffffff1673ffffffffffffffffffffffffffffffffffffffff16146111d3576040517f08c379a00000000000000000000000000000000000000000000000000000000081526004016111ca90613e38565b60405180910390fd5b6111db612eff565b33816000019073ffffffffffffffffffffffffffffffffffffffff16908173ffffffffffffffffffffffffffffffffffffffff1681525050818160200181905250600081604001901515908115158152505060008160600181815250506001600860003373ffffffffffffffffffffffffffffffffffffffff1673ffffffffffffffffffffffffffffffffffffffff16815260200190815260200160002060006101000a81548160ff02191690831515021790555080600260003373ffffffffffffffffffffffffffffffffffffffff1673ffffffffffffffffffffffffffffffffffffffff16815260200190815260200160002060008201518160000160006101000a81548173ffffffffffffffffffffffffffffffffffffffff021916908373ffffffffffffffffffffffffffffffffffffffff160217905550602082015181600101908161132c9190614004565b5060408201518160020160006101000a81548160ff0219169083151502179055506060820151816003015590505060008260405161136a9190614112565b60405180910390203373ffffffffffffffffffffffffffffffffffffffff167fa3af797e0e0278b304261b38a04867fcf38f457a18b1cb69aa937dbc7d27dc1960006040516113b99190613125565b60405180910390a45050565b60006113d0826126ae565b9050600860003373ffffffffffffffffffffffffffffffffffffffff1673ffffffffffffffffffffffffffffffffffffffff16815260200190815260200160002060009054906101000a900460ff1661145e576040517f08c379a000000000000000000000000000000000000000000000000000000000815260040161145590614175565b60405180910390fd5b600c600083815260200190815260200160002060080160009054906101000a900460ff166114c1576040517f08c379a00000000000000000000000000000000000000000000000000000000081526004016114b8906141e1565b60405180910390fd5b600c600083815260200190815260200160002060050154600c6000848152602001908152602001600020600401541161152f576040517f08c379a00000000000000000000000000000000000000000000000000000000081526004016115269061424d565b60405180910390fd5b42600c60008481526020019081526020016000206006015410611587576040517f08c379a000000000000000000000000000000000000000000000000000000000815260040161157e906142b9565b60405180910390fd5b42600c600084815260200190815260200160002060070154116115df576040517f08c379a00000000000000000000000000000000000000000000000000000000081526004016115d690614325565b60405180910390fd5b34600c60008481526020019081526020016000206004015411611637576040517f08c379a000000000000000000000000000000000000000000000000000000000815260040161162e906143b7565b60405180910390fd5b600d60008273ffffffffffffffffffffffffffffffffffffffff1673ffffffffffffffffffffffffffffffffffffffff168152602001908152602001600020826003811061168857611687613d4f565b5b6009020160080160009054906101000a900460ff166116dc576040517f08c379a00000000000000000000000000000000000000000000000000000000081526004016116d390614449565b60405180910390fd5b600d60008273ffffffffffffffffffffffffffffffffffffffff1673ffffffffffffffffffffffffffffffffffffffff168152602001908152602001600020826003811061172d5761172c613d4f565b5b6009020160050154600d60008373ffffffffffffffffffffffffffffffffffffffff1673ffffffffffffffffffffffffffffffffffffffff168152602001908152602001600020836003811061178657611785613d4f565b5b600902016004015411806117f1575034600d60008373ffffffffffffffffffffffffffffffffffffffff1673ffffffffffffffffffffffffffffffffffffffff16815260200190815260200160002083600381106117e7576117e6613d4f565b5b6009020160040154115b611830576040517f08c379a0000000000000000000000000000000000000000000000000000000008152600401611827906143b7565b60405180910390fd5b42600d60008373ffffffffffffffffffffffffffffffffffffffff1673ffffffffffffffffffffffffffffffffffffffff168152602001908152602001600020836003811061188257611881613d4f565b5b6009020160060154106118ca576040517f08c379a00000000000000000000000000000000000000000000000000000000081526004016118c1906144db565b60405180910390fd5b42600d60008373ffffffffffffffffffffffffffffffffffffffff1673ffffffffffffffffffffffffffffffffffffffff168152602001908152602001600020836003811061191c5761191b613d4f565b5b600902016007015411611964576040517f08c379a000000000000000000000000000000000000000000000000000000000815260040161195b9061456d565b60405180910390fd5b61196d816105b6565b34600d60008373ffffffffffffffffffffffffffffffffffffffff1673ffffffffffffffffffffffffffffffffffffffff16815260200190815260200160002083600381106119bf576119be613d4f565b5b6009020160050160008282546119d59190613bc1565b9250508190555034600d60008373ffffffffffffffffffffffffffffffffffffffff1673ffffffffffffffffffffffffffffffffffffffff1681526020019081526020016000208360038110611a2e57611a2d613d4f565b5b600902016004016000828254611a44919061458d565b9250508190555034600a60008373ffffffffffffffffffffffffffffffffffffffff1673ffffffffffffffffffffffffffffffffffffffff1681526020019081526020016000206000828254611a9a919061458d565b92505081905550600e60003373ffffffffffffffffffffffffffffffffffffffff1673ffffffffffffffffffffffffffffffffffffffff1681526020019081526020016000208290806001815401808255809150506001900390600052602060002001600090919091909150555050565b6040518060e001604052803373ffffffffffffffffffffffffffffffffffffffff1681526020018681526020018581526020018481526020018381526020018281526020016000815250600160003373ffffffffffffffffffffffffffffffffffffffff1673ffffffffffffffffffffffffffffffffffffffff16815260200190815260200160002060008201518160000160006101000a81548173ffffffffffffffffffffffffffffffffffffffff021916908373ffffffffffffffffffffffffffffffffffffffff1602179055506020820151816001019081611bf09190614004565b506040820151816002019081611c069190614004565b506060820151816003019081611c1c9190614004565b506080820151816004019081611c329190614004565b5060a0820151816005019081611c489190614004565b5060c082015181600601559050506001600760003373ffffffffffffffffffffffffffffffffffffffff1673ffffffffffffffffffffffffffffffffffffffff16815260200190815260200160002060006101000a81548160ff021916908315150217905550600085604051611cbe9190614112565b60405180910390203373ffffffffffffffffffffffffffffffffffffffff167f026c8095a2d83439aad5d7de9f27161173dcd2ca670c755e82ce2d8cd878aaae87878787604051611d1294939291906145c1565b60405180910390a45050505050565b600760003373ffffffffffffffffffffffffffffffffffffffff1673ffffffffffffffffffffffffffffffffffffffff16815260200190815260200160002060009054906101000a900460ff16611dad576040517f08c379a0000000000000000000000000000000000000000000000000000000008152600401611da490613c63565b60405180910390fd5b3373ffffffffffffffffffffffffffffffffffffffff16600c600084815260200190815260200160002060020160009054906101000a900473ffffffffffffffffffffffffffffffffffffffff1673ffffffffffffffffffffffffffffffffffffffff1614611e51576040517f08c379a0000000000000000000000000000000000000000000000000000000008152600401611e4890614694565b60405180910390fd5b80600d60003373ffffffffffffffffffffffffffffffffffffffff1673ffffffffffffffffffffffffffffffffffffffff1681526020019081526020016000208360038110611ea357611ea2613d4f565b5b6009020160080160006101000a81548160ff0219169083151502179055505050565b600760003373ffffffffffffffffffffffffffffffffffffffff1673ffffffffffffffffffffffffffffffffffffffff16815260200190815260200160002060009054906101000a900460ff16611f51576040517f08c379a0000000000000000000000000000000000000000000000000000000008152600401611f4890613c63565b60405180910390fd5b3373ffffffffffffffffffffffffffffffffffffffff16600c600083815260200190815260200160002060020160009054906101000a900473ffffffffffffffffffffffffffffffffffffffff1673ffffffffffffffffffffffffffffffffffffffff1614611ff5576040517f08c379a0000000000000000000000000000000000000000000000000000000008152600401611fec90614694565b60405180910390fd5b600d60003373ffffffffffffffffffffffffffffffffffffffff1673ffffffffffffffffffffffffffffffffffffffff168152602001908152602001600020816003811061204657612045613d4f565b5b600902016000808201600090556001820160006120639190612f3f565b6002820160006101000a81549073ffffffffffffffffffffffffffffffffffffffff021916905560038201600061209a9190612f3f565b60048201600090556005820160009055600682016000905560078201600090556008820160006101000a81549060ff0219169055505050565b60008054906101000a900473ffffffffffffffffffffffffffffffffffffffff1681565b6005602052816000526040600020602052806000526040600020600091509150505481565b600e602052816000526040600020818154811061213857600080fd5b90600052602060002001600091509150505481565b6003602052816000526040600020602052806000526040600020600091509150505481565b600760003373ffffffffffffffffffffffffffffffffffffffff1673ffffffffffffffffffffffffffffffffffffffff16815260200190815260200160002060009054906101000a900460ff166121fe576040517f08c379a00000000000000000000000000000000000000000000000000000000081526004016121f590613c63565b60405180910390fd5b6003600d60003373ffffffffffffffffffffffffffffffffffffffff1673ffffffffffffffffffffffffffffffffffffffff16815260200190815260200160002050600310612282576040517f08c379a000000000000000000000000000000000000000000000000000000000815260040161227990614726565b60405180910390fd5b61228a612f7f565b600b5481600001818152505085816020018190525033816040019073ffffffffffffffffffffffffffffffffffffffff16908173ffffffffffffffffffffffffffffffffffffffff16815250508481606001819052508381608001818152505060008160a0018181525050828160c0018181525050818160e001818152505060018161010001901515908115158152505080600c6000600b5481526020019081526020016000206000820151816000015560208201518160010190816123509190614004565b5060408201518160020160006101000a81548173ffffffffffffffffffffffffffffffffffffffff021916908373ffffffffffffffffffffffffffffffffffffffff16021790555060608201518160030190816123ad9190614004565b506080820151816004015560a0820151816005015560c0820151816006015560e082015181600701556101008201518160080160006101000a81548160ff02191690831515021790555090505080600d60003373ffffffffffffffffffffffffffffffffffffffff1673ffffffffffffffffffffffffffffffffffffffff168152602001908152602001600020600b546003811061244e5761244d613d4f565b5b600902016000820151816000015560208201518160010190816124719190614004565b5060408201518160020160006101000a81548173ffffffffffffffffffffffffffffffffffffffff021916908373ffffffffffffffffffffffffffffffffffffffff16021790555060608201518160030190816124ce9190614004565b506080820151816004015560a0820151816005015560c0820151816006015560e082015181600701556101008201518160080160006101000a81548160ff021916908315150217905550905050600b600081548092919061252e90613d7e565b9190505550505050505050565b6060600080600260008573ffffffffffffffffffffffffffffffffffffffff1673ffffffffffffffffffffffffffffffffffffffff168152602001908152602001600020600101600260008673ffffffffffffffffffffffffffffffffffffffff1673ffffffffffffffffffffffffffffffffffffffff16815260200190815260200160002060020160009054906101000a900460ff16600260008773ffffffffffffffffffffffffffffffffffffffff1673ffffffffffffffffffffffffffffffffffffffff1681526020019081526020016000206003015482805461262190613cb2565b80601f016020809104026020016040519081016040528092919081815260200182805461264d90613cb2565b801561269a5780601f1061266f5761010080835404028352916020019161269a565b820191906000526020600020905b81548152906001019060200180831161267d57829003601f168201915b505050505092509250925092509193909250565b6000600760003373ffffffffffffffffffffffffffffffffffffffff1673ffffffffffffffffffffffffffffffffffffffff16815260200190815260200160002060009054906101000a900460ff1661273c576040517f08c379a000000000000000000000000000000000000000000000000000000000815260040161273390613c63565b60405180910390fd5b600c600083815260200190815260200160002060020160009054906101000a900473ffffffffffffffffffffffffffffffffffffffff169050919050565b60608060608060606000600160008873ffffffffffffffffffffffffffffffffffffffff1673ffffffffffffffffffffffffffffffffffffffff168152602001908152602001600020600101600160008973ffffffffffffffffffffffffffffffffffffffff1673ffffffffffffffffffffffffffffffffffffffff168152602001908152602001600020600201600160008a73ffffffffffffffffffffffffffffffffffffffff1673ffffffffffffffffffffffffffffffffffffffff168152602001908152602001600020600301600160008b73ffffffffffffffffffffffffffffffffffffffff1673ffffffffffffffffffffffffffffffffffffffff168152602001908152602001600020600401600160008c73ffffffffffffffffffffffffffffffffffffffff1673ffffffffffffffffffffffffffffffffffffffff168152602001908152602001600020600501600160008d73ffffffffffffffffffffffffffffffffffffffff1673ffffffffffffffffffffffffffffffffffffffff1681526020019081526020016000206006015485805461291d90613cb2565b80601f016020809104026020016040519081016040528092919081815260200182805461294990613cb2565b80156129965780601f1061296b57610100808354040283529160200191612996565b820191906000526020600020905b81548152906001019060200180831161297957829003601f168201915b505050505095508480546129a990613cb2565b80601f01602080910402602001604051908101604052809291908181526020018280546129d590613cb2565b8015612a225780601f106129f757610100808354040283529160200191612a22565b820191906000526020600020905b815481529060010190602001808311612a0557829003601f168201915b50505050509450838054612a3590613cb2565b80601f0160208091040260200160405190810160405280929190818152602001828054612a6190613cb2565b8015612aae5780601f10612a8357610100808354040283529160200191612aae565b820191906000526020600020905b815481529060010190602001808311612a9157829003601f168201915b50505050509350828054612ac190613cb2565b80601f0160208091040260200160405190810160405280929190818152602001828054612aed90613cb2565b8015612b3a5780601f10612b0f57610100808354040283529160200191612b3a565b820191906000526020600020905b815481529060010190602001808311612b1d57829003601f168201915b50505050509250818054612b4d90613cb2565b80601f0160208091040260200160405190810160405280929190818152602001828054612b7990613cb2565b8015612bc65780601f10612b9b57610100808354040283529160200191612bc6565b820191906000526020600020905b815481529060010190602001808311612ba957829003601f168201915b5050505050915095509550955095509550955091939550919395565b6060806000600460003373ffffffffffffffffffffffffffffffffffffffff1673ffffffffffffffffffffffffffffffffffffffff16815260200190815260200160002080549050905060008167ffffffffffffffff811115612c4857612c476135e9565b5b604051908082528060200260200182016040528015612c765781602001602082028036833780820191505090505b50905060008267ffffffffffffffff811115612c9557612c946135e9565b5b604051908082528060200260200182016040528015612cc35781602001602082028036833780820191505090505b50905060005b83811015612ec457600460003373ffffffffffffffffffffffffffffffffffffffff1673ffffffffffffffffffffffffffffffffffffffff1681526020019081526020016000208181548110612d2257612d21613d4f565b5b9060005260206000200160009054906101000a900473ffffffffffffffffffffffffffffffffffffffff16838281518110612d6057612d5f613d4f565b5b602002602001019073ffffffffffffffffffffffffffffffffffffffff16908173ffffffffffffffffffffffffffffffffffffffff1681525050600360003373ffffffffffffffffffffffffffffffffffffffff1673ffffffffffffffffffffffffffffffffffffffff1681526020019081526020016000206000600460003373ffffffffffffffffffffffffffffffffffffffff1673ffffffffffffffffffffffffffffffffffffffff1681526020019081526020016000208381548110612e2c57612e2b613d4f565b5b9060005260206000200160009054906101000a900473ffffffffffffffffffffffffffffffffffffffff1673ffffffffffffffffffffffffffffffffffffffff1673ffffffffffffffffffffffffffffffffffffffff16815260200190815260200160002054828281518110612ea557612ea4613d4f565b5b6020026020010181815250508080612ebc90613d7e565b915050612cc9565b508181945094505050509091565b60405180606001604052806003905b612ee9612f7f565b815260200190600190039081612ee15790505090565b6040518060800160405280600073ffffffffffffffffffffffffffffffffffffffff16815260200160608152602001600015158152602001600081525090565b508054612f4b90613cb2565b6000825580601f10612f5d5750612f7c565b601f016020900490600052602060002090810190612f7b9190612fe3565b5b50565b6040518061012001604052806000815260200160608152602001600073ffffffffffffffffffffffffffffffffffffffff16815260200160608152602001600081526020016000815260200160008152602001600081526020016000151581525090565b5b80821115612ffc576000816000905550600101612fe4565b5090565b6000604051905090565b600080fd5b600080fd5b600073ffffffffffffffffffffffffffffffffffffffff82169050919050565b600061303f82613014565b9050919050565b61304f81613034565b811461305a57600080fd5b50565b60008135905061306c81613046565b92915050565b6000602082840312156130885761308761300a565b5b60006130968482850161305d565b91505092915050565b60006130aa82613014565b9050919050565b6130ba8161309f565b81146130c557600080fd5b50565b6000813590506130d7816130b1565b92915050565b6000602082840312156130f3576130f261300a565b5b6000613101848285016130c8565b91505092915050565b60008115159050919050565b61311f8161310a565b82525050565b600060208201905061313a6000830184613116565b92915050565b6000819050919050565b61315381613140565b811461315e57600080fd5b50565b6000813590506131708161314a565b92915050565b6000806040838503121561318d5761318c61300a565b5b600061319b858286016130c8565b92505060206131ac85828601613161565b9150509250929050565b6131bf8161309f565b82525050565b60006020820190506131da60008301846131b6565b92915050565b600060039050919050565b600081905092915050565b6000819050919050565b61320981613140565b82525050565b600081519050919050565b600082825260208201905092915050565b60005b8381101561324957808201518184015260208101905061322e565b83811115613258576000848401525b50505050565b6000601f19601f8301169050919050565b600061327a8261320f565b613284818561321a565b935061329481856020860161322b565b61329d8161325e565b840191505092915050565b6132b18161309f565b82525050565b6132c08161310a565b82525050565b6000610120830160008301516132df6000860182613200565b50602083015184820360208601526132f7828261326f565b915050604083015161330c60408601826132a8565b5060608301518482036060860152613324828261326f565b91505060808301516133396080860182613200565b5060a083015161334c60a0860182613200565b5060c083015161335f60c0860182613200565b5060e083015161337260e0860182613200565b506101008301516133876101008601826132b7565b508091505092915050565b600061339e83836132c6565b905092915050565b6000602082019050919050565b60006133be826131e0565b6133c881856131eb565b9350836020820285016133da856131f6565b8060005b8581101561341657848403895281516133f78582613392565b9450613402836133a6565b925060208a019950506001810190506133de565b50829750879550505050505092915050565b6000602082019050818103600083015261344281846133b3565b905092915050565b600081519050919050565b600082825260208201905092915050565b6000819050602082019050919050565b600061348283836132a8565b60208301905092915050565b6000602082019050919050565b60006134a68261344a565b6134b08185613455565b93506134bb83613466565b8060005b838110156134ec5781516134d38882613476565b97506134de8361348e565b9250506001810190506134bf565b5085935050505092915050565b600081519050919050565b600082825260208201905092915050565b6000819050602082019050919050565b60006135318383613200565b60208301905092915050565b6000602082019050919050565b6000613555826134f9565b61355f8185613504565b935061356a83613515565b8060005b8381101561359b5781516135828882613525565b975061358d8361353d565b92505060018101905061356e565b5085935050505092915050565b600060408201905081810360008301526135c2818561349b565b905081810360208301526135d6818461354a565b90509392505050565b600080fd5b600080fd5b7f4e487b7100000000000000000000000000000000000000000000000000000000600052604160045260246000fd5b6136218261325e565b810181811067ffffffffffffffff821117156136405761363f6135e9565b5b80604052505050565b6000613653613000565b905061365f8282613618565b919050565b600067ffffffffffffffff82111561367f5761367e6135e9565b5b6136888261325e565b9050602081019050919050565b82818337600083830152505050565b60006136b76136b284613664565b613649565b9050828152602081018484840111156136d3576136d26135e4565b5b6136de848285613695565b509392505050565b600082601f8301126136fb576136fa6135df565b5b813561370b8482602086016136a4565b91505092915050565b60006020828403121561372a5761372961300a565b5b600082013567ffffffffffffffff8111156137485761374761300f565b5b613754848285016136e6565b91505092915050565b6000602082840312156137735761377261300a565b5b600061378184828501613161565b91505092915050565b600080600080600060a086880312156137a6576137a561300a565b5b600086013567ffffffffffffffff8111156137c4576137c361300f565b5b6137d0888289016136e6565b955050602086013567ffffffffffffffff8111156137f1576137f061300f565b5b6137fd888289016136e6565b945050604086013567ffffffffffffffff81111561381e5761381d61300f565b5b61382a888289016136e6565b935050606086013567ffffffffffffffff81111561384b5761384a61300f565b5b613857888289016136e6565b925050608086013567ffffffffffffffff8111156138785761387761300f565b5b613884888289016136e6565b9150509295509295909350565b61389a8161310a565b81146138a557600080fd5b50565b6000813590506138b781613891565b92915050565b600080604083850312156138d4576138d361300a565b5b60006138e285828601613161565b92505060206138f3858286016138a8565b9150509250929050565b600080604083850312156139145761391361300a565b5b6000613922858286016130c8565b9250506020613933858286016130c8565b9150509250929050565b61394681613140565b82525050565b6000602082019050613961600083018461393d565b92915050565b600080600080600060a086880312156139835761398261300a565b5b600086013567ffffffffffffffff8111156139a1576139a061300f565b5b6139ad888289016136e6565b955050602086013567ffffffffffffffff8111156139ce576139cd61300f565b5b6139da888289016136e6565b94505060406139eb88828901613161565b93505060606139fc88828901613161565b9250506080613a0d88828901613161565b9150509295509295909350565b600082825260208201905092915050565b6000613a368261320f565b613a408185613a1a565b9350613a5081856020860161322b565b613a598161325e565b840191505092915050565b60006060820190508181036000830152613a7e8186613a2b565b9050613a8d6020830185613116565b613a9a604083018461393d565b949350505050565b600060c0820190508181036000830152613abc8189613a2b565b90508181036020830152613ad08188613a2b565b90508181036040830152613ae48187613a2b565b90508181036060830152613af88186613a2b565b90508181036080830152613b0c8185613a2b565b9050613b1b60a083018461393d565b979650505050505050565b7f416d6f756e74206d7573742062652067726561746572207468616e2030000000600082015250565b6000613b5c601d83613a1a565b9150613b6782613b26565b602082019050919050565b60006020820190508181036000830152613b8b81613b4f565b9050919050565b7f4e487b7100000000000000000000000000000000000000000000000000000000600052601160045260246000fd5b6000613bcc82613140565b9150613bd783613140565b9250827fffffffffffffffffffffffffffffffffffffffffffffffffffffffffffffffff03821115613c0c57613c0b613b92565b5b828201905092915050565b7f42726f2120596f7520617265206e6f7420612063726561746f72210000000000600082015250565b6000613c4d601b83613a1a565b9150613c5882613c17565b602082019050919050565b60006020820190508181036000830152613c7c81613c40565b9050919050565b7f4e487b7100000000000000000000000000000000000000000000000000000000600052602260045260246000fd5b60006002820490506001821680613cca57607f821691505b602082108103613cdd57613cdc613c83565b5b50919050565b7f55736572206164647265737320697320696e76616c6964000000000000000000600082015250565b6000613d19601783613a1a565b9150613d2482613ce3565b602082019050919050565b60006020820190508181036000830152613d4881613d0c565b9050919050565b7f4e487b7100000000000000000000000000000000000000000000000000000000600052603260045260246000fd5b6000613d8982613140565b91507fffffffffffffffffffffffffffffffffffffffffffffffffffffffffffffffff8203613dbb57613dba613b92565b5b600182019050919050565b7f42726f2077687920646f20796f752077616e742074776f206163636f756e747360008201527f2c20594f5520616c7265616479206861766520616e206163636f756e74000000602082015250565b6000613e22603d83613a1a565b9150613e2d82613dc6565b604082019050919050565b60006020820190508181036000830152613e5181613e15565b9050919050565b60008190508160005260206000209050919050565b60006020601f8301049050919050565b600082821b905092915050565b600060088302613eba7fffffffffffffffffffffffffffffffffffffffffffffffffffffffffffffffff82613e7d565b613ec48683613e7d565b95508019841693508086168417925050509392505050565b6000819050919050565b6000613f01613efc613ef784613140565b613edc565b613140565b9050919050565b6000819050919050565b613f1b83613ee6565b613f2f613f2782613f08565b848454613e8a565b825550505050565b600090565b613f44613f37565b613f4f818484613f12565b505050565b5b81811015613f7357613f68600082613f3c565b600181019050613f55565b5050565b601f821115613fb857613f8981613e58565b613f9284613e6d565b81016020851015613fa1578190505b613fb5613fad85613e6d565b830182613f54565b50505b505050565b600082821c905092915050565b6000613fdb60001984600802613fbd565b1980831691505092915050565b6000613ff48383613fca565b9150826002028217905092915050565b61400d8261320f565b67ffffffffffffffff811115614026576140256135e9565b5b6140308254613cb2565b61403b828285613f77565b600060209050601f83116001811461406e576000841561405c578287015190505b6140668582613fe8565b8655506140ce565b601f19841661407c86613e58565b60005b828110156140a45784890151825560018201915060208501945060208101905061407f565b868310156140c157848901516140bd601f891682613fca565b8355505b6001600288020188555050505b505050505050565b600081905092915050565b60006140ec8261320f565b6140f681856140d6565b935061410681856020860161322b565b80840191505092915050565b600061411e82846140e1565b915081905092915050565b7f42726f2120596f7520617265206e6f7420612075736572210000000000000000600082015250565b600061415f601883613a1a565b915061416a82614129565b602082019050919050565b6000602082019050818103600083015261418e81614152565b9050919050565b7f43616d706169676e206973206e6f742061637469766521000000000000000000600082015250565b60006141cb601783613a1a565b91506141d682614195565b602082019050919050565b600060208201905081810360008301526141fa816141be565b9050919050565b7f43616d706169676e20697320616c72656164792066756c6c2100000000000000600082015250565b6000614237601983613a1a565b915061424282614201565b602082019050919050565b600060208201905081810360008301526142668161422a565b9050919050565b7f43616d706169676e20686173206e6f7420737461727465642079657421000000600082015250565b60006142a3601d83613a1a565b91506142ae8261426d565b602082019050919050565b600060208201905081810360008301526142d281614296565b9050919050565b7f43616d706169676e2068617320656e6465642100000000000000000000000000600082015250565b600061430f601383613a1a565b915061431a826142d9565b602082019050919050565b6000602082019050818103600083015261433e81614302565b9050919050565b7f596f752063616e6e6f7420646f6e617465206d6f7265207468616e207468652060008201527f74617267657420616d6f756e7421000000000000000000000000000000000000602082015250565b60006143a1602e83613a1a565b91506143ac82614345565b604082019050919050565b600060208201905081810360008301526143d081614394565b9050919050565b7f596f752063616e6e6f7420646f6e61746520746f20612063616d706169676e2060008201527f74686174206973206e6f74206163746976652100000000000000000000000000602082015250565b6000614433603383613a1a565b915061443e826143d7565b604082019050919050565b6000602082019050818103600083015261446281614426565b9050919050565b7f596f752063616e6e6f7420646f6e61746520746f20612063616d706169676e2060008201527f7468617420686173206e6f742073746172746564207965742100000000000000602082015250565b60006144c5603983613a1a565b91506144d082614469565b604082019050919050565b600060208201905081810360008301526144f4816144b8565b9050919050565b7f596f752063616e6e6f7420646f6e61746520746f20612063616d706169676e2060008201527f746861742068617320656e646564210000000000000000000000000000000000602082015250565b6000614557602f83613a1a565b9150614562826144fb565b604082019050919050565b600060208201905081810360008301526145868161454a565b9050919050565b600061459882613140565b91506145a383613140565b9250828210156145b6576145b5613b92565b5b828203905092915050565b600060808201905081810360008301526145db8187613a2b565b905081810360208301526145ef8186613a2b565b905081810360408301526146038185613a2b565b905081810360608301526146178184613a2b565b905095945050505050565b7f596f752063616e206f6e6c792064656c65746520796f75722063616d7061696760008201527f6e73210000000000000000000000000000000000000000000000000000000000602082015250565b600061467e602383613a1a565b915061468982614622565b604082019050919050565b600060208201905081810360008301526146ad81614671565b9050919050565b7f596f752063616e2068617665206f6e6c792033206163746976652063616d706160008201527f69676e7320617420612074696d65210000000000000000000000000000000000602082015250565b6000614710602f83613a1a565b915061471b826146b4565b604082019050919050565b6000602082019050818103600083015261473f81614703565b905091905056fea2646970667358221220e5ff69bea84df1ce04f42e754781e17fd050d3e298a9bd87ff2147af31d4d60564736f6c634300080f0033",
  "immutableReferences": {},
  "source": "// SPDX-License-Identifier: MIT\npragma solidity >=0.4.22 <0.9.0;\n\ncontract CFPARCHIVE {\n    struct Creator {\n        address creator;\n        string name;\n        string photoUrl;\n        string email;\n        string website;\n        string socialMedia;\n        uint256 raisedAmount;\n    }\n    struct User {\n        address user;\n        string name;\n        bool isCreator;\n        uint256 totalDonatedAmount;\n    }\n    struct Donation {\n        address from;\n        address to;\n        uint256 amount;\n    }\n\n    event NewCreator(Creator creator);\n    event NewUser(User user);\n    event NewDonation(Donation donation);\n    // owner of the contract\n    address public owner;\n    // list of all the creators\n    mapping(address => Creator) creators;\n    // list of all the users\n    mapping(address => User) users;\n\n    // map of creator to the array of user addresses who donated\n    mapping(address => mapping(address => uint256))\n        public creatorToUsersToAmountDonated;\n    mapping(address => address[]) public creatorToUsersDonated;\n\n    // map of user to the array of creator addresses who they donated to\n    mapping(address => mapping(address => uint256))\n        public userToCreatorsToAmountDonated;\n    mapping(address => address[]) public userToCreatorsDonated;\n\n    mapping(address => bool) public creatorExists;\n    mapping(address => bool) public userExists;\n    mapping(address => bool) public userAndCreatorExists;\n\n    // Creator balance\n    mapping(address => uint256) creatorBalance;\n\n    //-----------------------\n    // EXTRA\n    // Create a counter for campaigns ids\n    uint256 private _campaignIdCounter;\n    struct Campaign {\n        uint256 id;\n        string name;\n        address createdBy;\n        string description;\n        uint256 targetMoney;\n        uint256 raisedMoney;\n        uint256 startTime;\n        uint256 endTime;\n        bool isActive;\n    }\n    mapping(uint256 => Campaign) campaigns;\n    mapping(address => Campaign[3]) creatorToCampaignsArray;\n\n    mapping(address => uint256[]) public userToCampaignsDonated;\n\n    function createCampaign(\n        string memory _name,\n        string memory _description,\n        uint256 _targetMoney,\n        uint256 _startTime,\n        uint256 _endTime\n    ) public {\n        require(creatorExists[msg.sender], \"Bro! You are not a creator!\");\n        // creators can have only 3 active campaigns at a time\n        require(\n            creatorToCampaignsArray[msg.sender].length < 3,\n            \"You can have only 3 active campaigns at a time!\"\n        );\n        Campaign memory newCampaign;\n        newCampaign.id = _campaignIdCounter;\n        newCampaign.name = _name;\n        newCampaign.createdBy = msg.sender;\n        newCampaign.description = _description;\n        newCampaign.targetMoney = _targetMoney;\n        newCampaign.raisedMoney = 0;\n        newCampaign.startTime = _startTime;\n        newCampaign.endTime = _endTime;\n        newCampaign.isActive = true;\n        campaigns[_campaignIdCounter] = newCampaign;\n        creatorToCampaignsArray[msg.sender][_campaignIdCounter] = newCampaign;\n        _campaignIdCounter++;\n    }\n\n    function deleteCampaign(uint256 _campaignId) public {\n        require(creatorExists[msg.sender], \"Bro! You are not a creator!\");\n        require(\n            campaigns[_campaignId].createdBy == msg.sender,\n            \"You can only delete your campaigns!\"\n        );\n\n        delete creatorToCampaignsArray[msg.sender][_campaignId];\n    }\n\n    function changeCampaignStatus(uint256 _campaignId, bool _isActive) public {\n        require(creatorExists[msg.sender], \"Bro! You are not a creator!\");\n        require(\n            campaigns[_campaignId].createdBy == msg.sender,\n            \"You can only delete your campaigns!\"\n        );\n        creatorToCampaignsArray[msg.sender][_campaignId].isActive = _isActive;\n    }\n\n    function getCampaignsOf(address _of)\n        public\n        view\n        returns (Campaign[3] memory)\n    {\n        require(creatorExists[_of], \"Bro! You are not a creator!\");\n        return creatorToCampaignsArray[_of];\n    }\n\n    function getCreator(uint256 _campaignId) public view returns (address) {\n        require(creatorExists[msg.sender], \"Bro! You are not a creator!\");\n        return campaigns[_campaignId].createdBy;\n    }\n\n    function donateToCampaigns(uint256 _campaignId) public payable {\n        address creatorAddress = getCreator(_campaignId);\n\n        require(userExists[msg.sender], \"Bro! You are not a user!\");\n        require(campaigns[_campaignId].isActive, \"Campaign is not active!\");\n        require(\n            campaigns[_campaignId].targetMoney >\n                campaigns[_campaignId].raisedMoney,\n            \"Campaign is already full!\"\n        );\n        require(\n            campaigns[_campaignId].startTime < block.timestamp,\n            \"Campaign has not started yet!\"\n        );\n        require(\n            campaigns[_campaignId].endTime > block.timestamp,\n            \"Campaign has ended!\"\n        );\n        require(\n            campaigns[_campaignId].targetMoney > msg.value,\n            \"You cannot donate more than the target amount!\"\n        );\n        require(\n            creatorToCampaignsArray[creatorAddress][_campaignId].isActive,\n            \"You cannot donate to a campaign that is not active!\"\n        );\n        require(\n            creatorToCampaignsArray[creatorAddress][_campaignId].targetMoney >\n                creatorToCampaignsArray[creatorAddress][_campaignId]\n                    .raisedMoney ||\n                creatorToCampaignsArray[creatorAddress][_campaignId]\n                    .targetMoney >\n                msg.value,\n            \"You cannot donate more than the target amount!\"\n        );\n        require(\n            creatorToCampaignsArray[creatorAddress][_campaignId].startTime <\n                block.timestamp,\n            \"You cannot donate to a campaign that has not started yet!\"\n        );\n        require(\n            creatorToCampaignsArray[creatorAddress][_campaignId].endTime >\n                block.timestamp,\n            \"You cannot donate to a campaign that has ended!\"\n        );\n        donate(payable(creatorAddress));\n        creatorToCampaignsArray[creatorAddress][_campaignId].raisedMoney += msg\n            .value;\n        creatorToCampaignsArray[creatorAddress][_campaignId].targetMoney -= msg\n            .value;\n        creatorBalance[creatorAddress] -= msg.value;\n        userToCampaignsDonated[msg.sender].push(_campaignId);\n        // userToCreatorsDonated[msg.sender].push(creatorAddress);\n        // userToCreatorsToAmountDonated[msg.sender][creatorAddress] = (msg.value);\n    }\n\n    //----------------------\n    event CreatorCreated(\n        address indexed creator,\n        string indexed name,\n        string photoUrl,\n        string email,\n        string website,\n        string socialMedia,\n        uint256 indexed raisedAmount\n    );\n\n    event UserCreated(\n        address indexed user,\n        string indexed name,\n        bool isCreator,\n        uint256 indexed totalDonatedAmount\n    );\n\n    event DonationCreated(\n        address indexed from,\n        address indexed to,\n        uint256 indexed amount,\n        uint256 timestamp\n    );\n\n    constructor() {\n        owner = msg.sender;\n    }\n\n    // MODIFIERS\n\n    // FUNCTIONS\n\n    function createCreator(\n        string memory name,\n        string memory photoUrl,\n        string memory email,\n        string memory website,\n        string memory socialMedia\n    ) public {\n        creators[msg.sender] = Creator({\n            creator: msg.sender,\n            name: name,\n            photoUrl: photoUrl,\n            email: email,\n            website: website,\n            socialMedia: socialMedia,\n            raisedAmount: 0\n        });\n        creatorExists[msg.sender] = true;\n        emit CreatorCreated(\n            msg.sender,\n            name,\n            photoUrl,\n            email,\n            website,\n            socialMedia,\n            0\n        );\n    }\n\n    // create the user\n    function createUser(string memory name) public {\n        require(\n            users[msg.sender].user == address(0),\n            \"Bro why do you want two accounts, YOU already have an account\"\n        );\n        User memory temp;\n        temp.user = msg.sender;\n        temp.name = name;\n        temp.isCreator = false;\n        temp.totalDonatedAmount = 0;\n        userExists[msg.sender] = true;\n        users[msg.sender] = temp;\n        emit UserCreated(msg.sender, name, false, 0);\n    }\n\n    // donate to the creator\n    function donate(address payable creator) public payable {\n        require(msg.value > 0, \"Amount must be greater than 0\");\n        users[msg.sender].totalDonatedAmount += msg.value;\n        creators[creator].raisedAmount += msg.value;\n        creatorToUsersToAmountDonated[creator][msg.sender] += msg.value;\n        creatorToUsersDonated[creator].push(msg.sender);\n        userToCreatorsToAmountDonated[msg.sender][creator] += msg.value;\n        userToCreatorsDonated[msg.sender].push(creator);\n        creator.transfer(msg.value);\n        emit DonationCreated(msg.sender, creator, msg.value, block.timestamp);\n    }\n\n    // get the details of the creator\n    function getCreatorDetails(address creator)\n        public\n        view\n        returns (\n            string memory name,\n            string memory photoUrl,\n            string memory email,\n            string memory website,\n            string memory socialMedia,\n            uint256 raisedAmount\n        )\n    {\n        return (\n            creators[creator].name,\n            creators[creator].photoUrl,\n            creators[creator].email,\n            creators[creator].website,\n            creators[creator].socialMedia,\n            creators[creator].raisedAmount\n        );\n    }\n\n    function getUserDetails(address user)\n        public\n        view\n        returns (\n            string memory name,\n            bool isCreator,\n            uint256 totalDonatedAmount\n        )\n    {\n        return (\n            users[user].name,\n            users[user].isCreator,\n            users[user].totalDonatedAmount\n        );\n    }\n\n    // get the donation details of the creator\n    // When given the creator address, it returns the list of users who donated to the creator and another array with respective amounts\n    function getCreatorDonationDetails()\n        public\n        view\n        returns (address[] memory, uint256[] memory)\n    {\n        uint256 size = creatorToUsersDonated[msg.sender].length;\n        address[] memory usersDonated = new address[](size);\n        uint256[] memory amountsDonated = new uint256[](size);\n        for (uint256 i = 0; i < size; i++) {\n            usersDonated[i] = creatorToUsersDonated[msg.sender][i];\n            amountsDonated[i] = creatorToUsersToAmountDonated[msg.sender][\n                creatorToUsersDonated[msg.sender][i]\n            ];\n        }\n        return (usersDonated, amountsDonated);\n    }\n\n    function getUserDonationDetails(address _user)\n        public\n        view\n        returns (address[] memory, uint256[] memory)\n    {\n        require(_user != address(0), \"User address is invalid\");\n\n        uint256 size = userToCreatorsDonated[_user].length;\n        address[] memory creatorsDonated = new address[](size);\n        uint256[] memory amountsDonated = new uint256[](size);\n        for (uint256 i = 0; i < size; i++) {\n            creatorsDonated[i] = userToCreatorsDonated[_user][i];\n            amountsDonated[i] = userToCreatorsToAmountDonated[_user][\n                userToCreatorsDonated[_user][i]\n            ];\n        }\n        return (creatorsDonated, amountsDonated);\n    }\n}\n",
  "sourcePath": "/Users/pavan/Desktop/hackathon/smart-contracts/contracts/CFP(archive).sol",
  "compiler": {
    "name": "solc",
    "version": "0.8.15+commit.e14f2714.Emscripten.clang"
  },
  "schemaVersion": "3.4.8",
  "updatedAt": "2022-07-24T02:21:46.572Z",
  "devdoc": {
    "kind": "dev",
    "methods": {},
    "version": 1
  },
  "userdoc": {
    "kind": "user",
    "methods": {},
    "version": 1
  }
}