{
  "contractName": "DON",
  "abi": [
    {
      "inputs": [],
      "name": "getAllCreators",
      "outputs": [
        {
          "components": [
            {
              "internalType": "address",
              "name": "creator",
              "type": "address"
            },
            {
              "internalType": "string",
              "name": "name",
              "type": "string"
            },
            {
              "internalType": "string",
              "name": "email",
              "type": "string"
            },
            {
              "internalType": "string",
              "name": "website",
              "type": "string"
            },
            {
              "internalType": "string",
              "name": "socialMedia",
              "type": "string"
            },
            {
              "internalType": "string",
              "name": "photo",
              "type": "string"
            },
            {
              "internalType": "string",
              "name": "category",
              "type": "string"
            }
          ],
          "internalType": "struct DON.Creator[]",
          "name": "",
          "type": "tuple[]"
        }
      ],
      "stateMutability": "view",
      "type": "function"
    },
    {
      "inputs": [
        {
          "internalType": "address",
          "name": "creatorAddress",
          "type": "address"
        }
      ],
      "name": "getCreatorDonors",
      "outputs": [
        {
          "components": [
            {
              "internalType": "string",
              "name": "name",
              "type": "string"
            },
            {
              "internalType": "address",
              "name": "user",
              "type": "address"
            },
            {
              "internalType": "bool",
              "name": "isCreator",
              "type": "bool"
            }
          ],
          "internalType": "struct DON.User[]",
          "name": "",
          "type": "tuple[]"
        }
      ],
      "stateMutability": "view",
      "type": "function"
    },
    {
      "inputs": [
        {
          "internalType": "address",
          "name": "userAddress",
          "type": "address"
        }
      ],
      "name": "getUserCreators",
      "outputs": [
        {
          "components": [
            {
              "internalType": "address",
              "name": "creator",
              "type": "address"
            },
            {
              "internalType": "string",
              "name": "name",
              "type": "string"
            },
            {
              "internalType": "string",
              "name": "email",
              "type": "string"
            },
            {
              "internalType": "string",
              "name": "website",
              "type": "string"
            },
            {
              "internalType": "string",
              "name": "socialMedia",
              "type": "string"
            },
            {
              "internalType": "string",
              "name": "photo",
              "type": "string"
            },
            {
              "internalType": "string",
              "name": "category",
              "type": "string"
            }
          ],
          "internalType": "struct DON.Creator[]",
          "name": "",
          "type": "tuple[]"
        }
      ],
      "stateMutability": "view",
      "type": "function"
    },
    {
      "inputs": [
        {
          "internalType": "string",
          "name": "_name",
          "type": "string"
        },
        {
          "internalType": "string",
          "name": "_email",
          "type": "string"
        },
        {
          "internalType": "string",
          "name": "_website",
          "type": "string"
        },
        {
          "internalType": "string",
          "name": "_socialMedia",
          "type": "string"
        },
        {
          "internalType": "string",
          "name": "_photo",
          "type": "string"
        }
      ],
      "name": "createCreator",
      "outputs": [
        {
          "internalType": "bool",
          "name": "",
          "type": "bool"
        }
      ],
      "stateMutability": "nonpayable",
      "type": "function"
    },
    {
      "inputs": [
        {
          "internalType": "string",
          "name": "_name",
          "type": "string"
        }
      ],
      "name": "createUser",
      "outputs": [
        {
          "internalType": "bool",
          "name": "",
          "type": "bool"
        }
      ],
      "stateMutability": "nonpayable",
      "type": "function"
    },
    {
      "inputs": [
        {
          "internalType": "address payable",
          "name": "_to",
          "type": "address"
        }
      ],
      "name": "donate",
      "outputs": [],
      "stateMutability": "payable",
      "type": "function"
    }
  ],
  "bytecode": "0x608060405234801561001057600080fd5b50612a45806100206000396000f3fe6080604052600436106100545760003560e01c8062362a95146100595780632cbfe30a14610075578063507ffba5146100b25780636433e07b146100ef578063a56c87c71461012c578063f97fac4d14610169575b600080fd5b610073600480360381019061006e9190611e4c565b610194565b005b34801561008157600080fd5b5061009c60048036038101906100979190611eb7565b610985565b6040516100a9919061210d565b60405180910390f35b3480156100be57600080fd5b506100d960048036038101906100d49190612264565b610ed5565b6040516100e691906122c8565b60405180910390f35b3480156100fb57600080fd5b50610116600480360381019061011191906122e3565b6110af565b60405161012391906122c8565b60405180910390f35b34801561013857600080fd5b50610153600480360381019061014e9190611eb7565b611577565b604051610160919061250b565b60405180910390f35b34801561017557600080fd5b5061017e611808565b60405161018b919061210d565b60405180910390f35b600760003373ffffffffffffffffffffffffffffffffffffffff1673ffffffffffffffffffffffffffffffffffffffff16815260200190815260200160002060009054906101000a900460ff161561098257600a60008273ffffffffffffffffffffffffffffffffffffffff1673ffffffffffffffffffffffffffffffffffffffff16815260200190815260200160002060009054906101000a900460ff1615610982578073ffffffffffffffffffffffffffffffffffffffff166108fc349081150290604051600060405180830381858888f1935050505015801561027e573d6000803e3d6000fd5b5034600b60008373ffffffffffffffffffffffffffffffffffffffff1673ffffffffffffffffffffffffffffffffffffffff16815260200190815260200160002060008282546102ce9190612566565b9250508190555034600160003373ffffffffffffffffffffffffffffffffffffffff1673ffffffffffffffffffffffffffffffffffffffff16815260200190815260200160002060008373ffffffffffffffffffffffffffffffffffffffff1673ffffffffffffffffffffffffffffffffffffffff16815260200190815260200160002060008282546103619190612566565b9250508190555034600460008373ffffffffffffffffffffffffffffffffffffffff1673ffffffffffffffffffffffffffffffffffffffff16815260200190815260200160002060003373ffffffffffffffffffffffffffffffffffffffff1673ffffffffffffffffffffffffffffffffffffffff16815260200190815260200160002060008282546103f49190612566565b92505081905550600260003373ffffffffffffffffffffffffffffffffffffffff1673ffffffffffffffffffffffffffffffffffffffff168152602001908152602001600020600860008373ffffffffffffffffffffffffffffffffffffffff1673ffffffffffffffffffffffffffffffffffffffff16815260200190815260200160002090806001815401808255809150506001900390600052602060002090600702016000909190919091506000820160009054906101000a900473ffffffffffffffffffffffffffffffffffffffff168160000160006101000a81548173ffffffffffffffffffffffffffffffffffffffff021916908373ffffffffffffffffffffffffffffffffffffffff1602179055506001820181600101908161051d91906127de565b506002820181600201908161053291906127de565b506003820181600301908161054791906127de565b506004820181600401908161055c91906127de565b506005820181600501908161057191906127de565b506006820181600601908161058691906127de565b505050600560008273ffffffffffffffffffffffffffffffffffffffff1673ffffffffffffffffffffffffffffffffffffffff168152602001908152602001600020600660003373ffffffffffffffffffffffffffffffffffffffff1673ffffffffffffffffffffffffffffffffffffffff16815260200190815260200160002090806001815401808255809150506001900390600052602060002090600202016000909190919091506000820181600001908161064491906127de565b506001820160009054906101000a900473ffffffffffffffffffffffffffffffffffffffff168160010160006101000a81548173ffffffffffffffffffffffffffffffffffffffff021916908373ffffffffffffffffffffffffffffffffffffffff1602179055506001820160149054906101000a900460ff168160010160146101000a81548160ff02191690831515021790555050506106e3611cfa565b81816000019073ffffffffffffffffffffffffffffffffffffffff16908173ffffffffffffffffffffffffffffffffffffffff168152505033816020019073ffffffffffffffffffffffffffffffffffffffff16908173ffffffffffffffffffffffffffffffffffffffff168152505034816040018181525050428160600181815250506000803373ffffffffffffffffffffffffffffffffffffffff1673ffffffffffffffffffffffffffffffffffffffff16815260200190815260200160002081908060018154018082558091505060019003906000526020600020906004020160009091909190915060008201518160000160006101000a81548173ffffffffffffffffffffffffffffffffffffffff021916908373ffffffffffffffffffffffffffffffffffffffff16021790555060208201518160010160006101000a81548173ffffffffffffffffffffffffffffffffffffffff021916908373ffffffffffffffffffffffffffffffffffffffff16021790555060408201518160020155606082015181600301555050600360008373ffffffffffffffffffffffffffffffffffffffff1673ffffffffffffffffffffffffffffffffffffffff16815260200190815260200160002081908060018154018082558091505060019003906000526020600020906004020160009091909190915060008201518160000160006101000a81548173ffffffffffffffffffffffffffffffffffffffff021916908373ffffffffffffffffffffffffffffffffffffffff16021790555060208201518160010160006101000a81548173ffffffffffffffffffffffffffffffffffffffff021916908373ffffffffffffffffffffffffffffffffffffffff16021790555060408201518160020155606082015181600301555050505b50565b60606000600260008473ffffffffffffffffffffffffffffffffffffffff1673ffffffffffffffffffffffffffffffffffffffff1681526020019081526020016000208054905067ffffffffffffffff8111156109e5576109e4612139565b5b604051908082528060200260200182016040528015610a1e57816020015b610a0b611d4e565b815260200190600190039081610a035790505b50905060005b600260008573ffffffffffffffffffffffffffffffffffffffff1673ffffffffffffffffffffffffffffffffffffffff16815260200190815260200160002080549050811015610ecb57600260008573ffffffffffffffffffffffffffffffffffffffff1673ffffffffffffffffffffffffffffffffffffffff1681526020019081526020016000208181548110610abf57610abe6128c6565b5b90600052602060002090600702016040518060e00160405290816000820160009054906101000a900473ffffffffffffffffffffffffffffffffffffffff1673ffffffffffffffffffffffffffffffffffffffff1673ffffffffffffffffffffffffffffffffffffffff168152602001600182018054610b3e906125eb565b80601f0160208091040260200160405190810160405280929190818152602001828054610b6a906125eb565b8015610bb75780601f10610b8c57610100808354040283529160200191610bb7565b820191906000526020600020905b815481529060010190602001808311610b9a57829003601f168201915b50505050508152602001600282018054610bd0906125eb565b80601f0160208091040260200160405190810160405280929190818152602001828054610bfc906125eb565b8015610c495780601f10610c1e57610100808354040283529160200191610c49565b820191906000526020600020905b815481529060010190602001808311610c2c57829003601f168201915b50505050508152602001600382018054610c62906125eb565b80601f0160208091040260200160405190810160405280929190818152602001828054610c8e906125eb565b8015610cdb5780601f10610cb057610100808354040283529160200191610cdb565b820191906000526020600020905b815481529060010190602001808311610cbe57829003601f168201915b50505050508152602001600482018054610cf4906125eb565b80601f0160208091040260200160405190810160405280929190818152602001828054610d20906125eb565b8015610d6d5780601f10610d4257610100808354040283529160200191610d6d565b820191906000526020600020905b815481529060010190602001808311610d5057829003601f168201915b50505050508152602001600582018054610d86906125eb565b80601f0160208091040260200160405190810160405280929190818152602001828054610db2906125eb565b8015610dff5780601f10610dd457610100808354040283529160200191610dff565b820191906000526020600020905b815481529060010190602001808311610de257829003601f168201915b50505050508152602001600682018054610e18906125eb565b80601f0160208091040260200160405190810160405280929190818152602001828054610e44906125eb565b8015610e915780601f10610e6657610100808354040283529160200191610e91565b820191906000526020600020905b815481529060010190602001808311610e7457829003601f168201915b505050505081525050828281518110610ead57610eac6128c6565b5b60200260200101819052508080610ec3906128f5565b915050610a24565b5080915050919050565b6000600760003373ffffffffffffffffffffffffffffffffffffffff1673ffffffffffffffffffffffffffffffffffffffff16815260200190815260200160002060009054906101000a900460ff1615610f3257600090506110aa565b610f3a611da1565b82816000018190525033816020019073ffffffffffffffffffffffffffffffffffffffff16908173ffffffffffffffffffffffffffffffffffffffff1681525050600081604001901515908115158152505080600660003373ffffffffffffffffffffffffffffffffffffffff1673ffffffffffffffffffffffffffffffffffffffff1681526020019081526020016000206000820151816000019081610fe1919061293d565b5060208201518160010160006101000a81548173ffffffffffffffffffffffffffffffffffffffff021916908373ffffffffffffffffffffffffffffffffffffffff16021790555060408201518160010160146101000a81548160ff0219169083151502179055509050506001600760003373ffffffffffffffffffffffffffffffffffffffff1673ffffffffffffffffffffffffffffffffffffffff16815260200190815260200160002060006101000a81548160ff02191690831515021790555060019150505b919050565b6000600a60003373ffffffffffffffffffffffffffffffffffffffff1673ffffffffffffffffffffffffffffffffffffffff16815260200190815260200160002060009054906101000a900460ff161561110c576000905061156e565b611114611d4e565b33816000019073ffffffffffffffffffffffffffffffffffffffff16908173ffffffffffffffffffffffffffffffffffffffff1681525050868160200181905250858160400181905250848160600181905250838160800181905250828160a0018190525080600860003373ffffffffffffffffffffffffffffffffffffffff1673ffffffffffffffffffffffffffffffffffffffff16815260200190815260200160002060008201518160000160006101000a81548173ffffffffffffffffffffffffffffffffffffffff021916908373ffffffffffffffffffffffffffffffffffffffff1602179055506020820151816001019081611215919061293d565b50604082015181600201908161122b919061293d565b506060820151816003019081611241919061293d565b506080820151816004019081611257919061293d565b5060a082015181600501908161126d919061293d565b5060c0820151816006019081611283919061293d565b509050506001600a60003373ffffffffffffffffffffffffffffffffffffffff1673ffffffffffffffffffffffffffffffffffffffff16815260200190815260200160002060006101000a81548160ff0219169083151502179055506009339080600181540180825580915050600190039060005260206000200160009091909190916101000a81548173ffffffffffffffffffffffffffffffffffffffff021916908373ffffffffffffffffffffffffffffffffffffffff160217905550600760003373ffffffffffffffffffffffffffffffffffffffff1673ffffffffffffffffffffffffffffffffffffffff16815260200190815260200160002060009054906101000a900460ff16156113f4576001600660003373ffffffffffffffffffffffffffffffffffffffff1673ffffffffffffffffffffffffffffffffffffffff16815260200190815260200160002060010160146101000a81548160ff021916908315150217905550611568565b6113fc611da1565b87816000018190525033816020019073ffffffffffffffffffffffffffffffffffffffff16908173ffffffffffffffffffffffffffffffffffffffff1681525050600181604001901515908115158152505080600660003373ffffffffffffffffffffffffffffffffffffffff1673ffffffffffffffffffffffffffffffffffffffff16815260200190815260200160002060008201518160000190816114a3919061293d565b5060208201518160010160006101000a81548173ffffffffffffffffffffffffffffffffffffffff021916908373ffffffffffffffffffffffffffffffffffffffff16021790555060408201518160010160146101000a81548160ff0219169083151502179055509050506001600760003373ffffffffffffffffffffffffffffffffffffffff1673ffffffffffffffffffffffffffffffffffffffff16815260200190815260200160002060006101000a81548160ff021916908315150217905550505b60019150505b95945050505050565b60606000600560008473ffffffffffffffffffffffffffffffffffffffff1673ffffffffffffffffffffffffffffffffffffffff1681526020019081526020016000208054905067ffffffffffffffff8111156115d7576115d6612139565b5b60405190808252806020026020018201604052801561161057816020015b6115fd611da1565b8152602001906001900390816115f55790505b50905060005b600560008573ffffffffffffffffffffffffffffffffffffffff1673ffffffffffffffffffffffffffffffffffffffff168152602001908152602001600020805490508110156117fe57600560008573ffffffffffffffffffffffffffffffffffffffff1673ffffffffffffffffffffffffffffffffffffffff16815260200190815260200160002081815481106116b1576116b06128c6565b5b90600052602060002090600202016040518060600160405290816000820180546116da906125eb565b80601f0160208091040260200160405190810160405280929190818152602001828054611706906125eb565b80156117535780601f1061172857610100808354040283529160200191611753565b820191906000526020600020905b81548152906001019060200180831161173657829003601f168201915b505050505081526020016001820160009054906101000a900473ffffffffffffffffffffffffffffffffffffffff1673ffffffffffffffffffffffffffffffffffffffff1673ffffffffffffffffffffffffffffffffffffffff1681526020016001820160149054906101000a900460ff1615151515815250508282815181106117e0576117df6128c6565b5b602002602001018190525080806117f6906128f5565b915050611616565b5080915050919050565b6060600060098054905067ffffffffffffffff81111561182b5761182a612139565b5b60405190808252806020026020018201604052801561186457816020015b611851611d4e565b8152602001906001900390816118495790505b50905060005b600980549050811015611cf257600860006009838154811061188f5761188e6128c6565b5b9060005260206000200160009054906101000a900473ffffffffffffffffffffffffffffffffffffffff1673ffffffffffffffffffffffffffffffffffffffff1673ffffffffffffffffffffffffffffffffffffffff1681526020019081526020016000206040518060e00160405290816000820160009054906101000a900473ffffffffffffffffffffffffffffffffffffffff1673ffffffffffffffffffffffffffffffffffffffff1673ffffffffffffffffffffffffffffffffffffffff168152602001600182018054611965906125eb565b80601f0160208091040260200160405190810160405280929190818152602001828054611991906125eb565b80156119de5780601f106119b3576101008083540402835291602001916119de565b820191906000526020600020905b8154815290600101906020018083116119c157829003601f168201915b505050505081526020016002820180546119f7906125eb565b80601f0160208091040260200160405190810160405280929190818152602001828054611a23906125eb565b8015611a705780601f10611a4557610100808354040283529160200191611a70565b820191906000526020600020905b815481529060010190602001808311611a5357829003601f168201915b50505050508152602001600382018054611a89906125eb565b80601f0160208091040260200160405190810160405280929190818152602001828054611ab5906125eb565b8015611b025780601f10611ad757610100808354040283529160200191611b02565b820191906000526020600020905b815481529060010190602001808311611ae557829003601f168201915b50505050508152602001600482018054611b1b906125eb565b80601f0160208091040260200160405190810160405280929190818152602001828054611b47906125eb565b8015611b945780601f10611b6957610100808354040283529160200191611b94565b820191906000526020600020905b815481529060010190602001808311611b7757829003601f168201915b50505050508152602001600582018054611bad906125eb565b80601f0160208091040260200160405190810160405280929190818152602001828054611bd9906125eb565b8015611c265780601f10611bfb57610100808354040283529160200191611c26565b820191906000526020600020905b815481529060010190602001808311611c0957829003601f168201915b50505050508152602001600682018054611c3f906125eb565b80601f0160208091040260200160405190810160405280929190818152602001828054611c6b906125eb565b8015611cb85780601f10611c8d57610100808354040283529160200191611cb8565b820191906000526020600020905b815481529060010190602001808311611c9b57829003601f168201915b505050505081525050828281518110611cd457611cd36128c6565b5b60200260200101819052508080611cea906128f5565b91505061186a565b508091505090565b6040518060800160405280600073ffffffffffffffffffffffffffffffffffffffff168152602001600073ffffffffffffffffffffffffffffffffffffffff16815260200160008152602001600081525090565b6040518060e00160405280600073ffffffffffffffffffffffffffffffffffffffff1681526020016060815260200160608152602001606081526020016060815260200160608152602001606081525090565b604051806060016040528060608152602001600073ffffffffffffffffffffffffffffffffffffffff1681526020016000151581525090565b6000604051905090565b600080fd5b600080fd5b600073ffffffffffffffffffffffffffffffffffffffff82169050919050565b6000611e1982611dee565b9050919050565b611e2981611e0e565b8114611e3457600080fd5b50565b600081359050611e4681611e20565b92915050565b600060208284031215611e6257611e61611de4565b5b6000611e7084828501611e37565b91505092915050565b6000611e8482611dee565b9050919050565b611e9481611e79565b8114611e9f57600080fd5b50565b600081359050611eb181611e8b565b92915050565b600060208284031215611ecd57611ecc611de4565b5b6000611edb84828501611ea2565b91505092915050565b600081519050919050565b600082825260208201905092915050565b6000819050602082019050919050565b611f1981611e79565b82525050565b600081519050919050565b600082825260208201905092915050565b60005b83811015611f59578082015181840152602081019050611f3e565b83811115611f68576000848401525b50505050565b6000601f19601f8301169050919050565b6000611f8a82611f1f565b611f948185611f2a565b9350611fa4818560208601611f3b565b611fad81611f6e565b840191505092915050565b600060e083016000830151611fd06000860182611f10565b5060208301518482036020860152611fe88282611f7f565b915050604083015184820360408601526120028282611f7f565b9150506060830151848203606086015261201c8282611f7f565b915050608083015184820360808601526120368282611f7f565b91505060a083015184820360a08601526120508282611f7f565b91505060c083015184820360c086015261206a8282611f7f565b9150508091505092915050565b60006120838383611fb8565b905092915050565b6000602082019050919050565b60006120a382611ee4565b6120ad8185611eef565b9350836020820285016120bf85611f00565b8060005b858110156120fb57848403895281516120dc8582612077565b94506120e78361208b565b925060208a019950506001810190506120c3565b50829750879550505050505092915050565b600060208201905081810360008301526121278184612098565b905092915050565b600080fd5b600080fd5b7f4e487b7100000000000000000000000000000000000000000000000000000000600052604160045260246000fd5b61217182611f6e565b810181811067ffffffffffffffff821117156121905761218f612139565b5b80604052505050565b60006121a3611dda565b90506121af8282612168565b919050565b600067ffffffffffffffff8211156121cf576121ce612139565b5b6121d882611f6e565b9050602081019050919050565b82818337600083830152505050565b6000612207612202846121b4565b612199565b90508281526020810184848401111561222357612222612134565b5b61222e8482856121e5565b509392505050565b600082601f83011261224b5761224a61212f565b5b813561225b8482602086016121f4565b91505092915050565b60006020828403121561227a57612279611de4565b5b600082013567ffffffffffffffff81111561229857612297611de9565b5b6122a484828501612236565b91505092915050565b60008115159050919050565b6122c2816122ad565b82525050565b60006020820190506122dd60008301846122b9565b92915050565b600080600080600060a086880312156122ff576122fe611de4565b5b600086013567ffffffffffffffff81111561231d5761231c611de9565b5b61232988828901612236565b955050602086013567ffffffffffffffff81111561234a57612349611de9565b5b61235688828901612236565b945050604086013567ffffffffffffffff81111561237757612376611de9565b5b61238388828901612236565b935050606086013567ffffffffffffffff8111156123a4576123a3611de9565b5b6123b088828901612236565b925050608086013567ffffffffffffffff8111156123d1576123d0611de9565b5b6123dd88828901612236565b9150509295509295909350565b600081519050919050565b600082825260208201905092915050565b6000819050602082019050919050565b61241f816122ad565b82525050565b600060608301600083015184820360008601526124428282611f7f565b91505060208301516124576020860182611f10565b50604083015161246a6040860182612416565b508091505092915050565b60006124818383612425565b905092915050565b6000602082019050919050565b60006124a1826123ea565b6124ab81856123f5565b9350836020820285016124bd85612406565b8060005b858110156124f957848403895281516124da8582612475565b94506124e583612489565b925060208a019950506001810190506124c1565b50829750879550505050505092915050565b600060208201905081810360008301526125258184612496565b905092915050565b6000819050919050565b7f4e487b7100000000000000000000000000000000000000000000000000000000600052601160045260246000fd5b60006125718261252d565b915061257c8361252d565b9250827fffffffffffffffffffffffffffffffffffffffffffffffffffffffffffffffff038211156125b1576125b0612537565b5b828201905092915050565b7f4e487b7100000000000000000000000000000000000000000000000000000000600052602260045260246000fd5b6000600282049050600182168061260357607f821691505b602082108103612616576126156125bc565b5b50919050565b60008154905061262b816125eb565b9050919050565b60008190508160005260206000209050919050565b60006020601f8301049050919050565b600082821b905092915050565b6000600883026126947fffffffffffffffffffffffffffffffffffffffffffffffffffffffffffffffff82612657565b61269e8683612657565b95508019841693508086168417925050509392505050565b6000819050919050565b60006126db6126d66126d18461252d565b6126b6565b61252d565b9050919050565b6000819050919050565b6126f5836126c0565b612709612701826126e2565b848454612664565b825550505050565b600090565b61271e612711565b6127298184846126ec565b505050565b5b8181101561274d57612742600082612716565b60018101905061272f565b5050565b601f8211156127925761276381612632565b61276c84612647565b8101602085101561277b578190505b61278f61278785612647565b83018261272e565b50505b505050565b600082821c905092915050565b60006127b560001984600802612797565b1980831691505092915050565b60006127ce83836127a4565b9150826002028217905092915050565b8181036127ec5750506128c4565b6127f58261261c565b67ffffffffffffffff81111561280e5761280d612139565b5b61281882546125eb565b612823828285612751565b6000601f8311600181146128525760008415612840578287015490505b61284a85826127c2565b8655506128bd565b601f19841661286087612632565b965061286b86612632565b60005b828110156128935784890154825560018201915060018501945060208101905061286e565b868310156128b057848901546128ac601f8916826127a4565b8355505b6001600288020188555050505b5050505050505b565b7f4e487b7100000000000000000000000000000000000000000000000000000000600052603260045260246000fd5b60006129008261252d565b91507fffffffffffffffffffffffffffffffffffffffffffffffffffffffffffffffff820361293257612931612537565b5b600182019050919050565b61294682611f1f565b67ffffffffffffffff81111561295f5761295e612139565b5b61296982546125eb565b612974828285612751565b600060209050601f8311600181146129a75760008415612995578287015190505b61299f85826127c2565b865550612a07565b601f1984166129b586612632565b60005b828110156129dd578489015182556001820191506020850194506020810190506129b8565b868310156129fa57848901516129f6601f8916826127a4565b8355505b6001600288020188555050505b50505050505056fea264697066735822122024ad30f6dcca45fbee9fc5b787b2271386a430bd1ad4ebc8ea22932f3890853464736f6c634300080f0033",
  "immutableReferences": {},
  "source": "// SPDX-License-Identifier: MIT\npragma solidity >=0.4.22 <0.9.0;\n\n/**\nCreate a donation application where users can donate cryptocurrency to their favourite content creators(test cryptocurrency is fine) .\nCreate separate login and dashboard pages for content creators to update their information like photo, email id, website link and social media ids.\nUsers of content creators should have the ability to login to the portal and browse among existing content creators according to their choice.\nUsers should be able to send cryptocurrency(Neo/Ether/BTC,etc.) to the content creator after choosing one from existing content creators.\nUser Analytics and Creator Analytics should be included in a separate page. Logged in User can see only his personal analytics(ie. How much he has donated to which creator)\nCreator Analytics should only be visible to creators which will include details regarding donation received from individual users\nIf an entity is both a creator and a user, then he shall be able to see both creator analytics and user analytics. \n */\n\ncontract DON {\n    struct User {\n        string name;\n        address user;\n        bool isCreator;\n    }\n    struct Creator {\n        address creator;\n        string name;\n        string email;\n        string website;\n        string socialMedia;\n        string photo;\n        string category;\n    }\n    struct Donation {\n        address to;\n        address from;\n        uint256 amount;\n        uint256 timestamp;\n    }\n    mapping(address => Donation[]) userAddressDonationsMap;\n    mapping(address => mapping(address => uint256)) amountUserDonatedToCreatorMap;\n    mapping(address => Creator[]) userAddressToCreators;\n\n    mapping(address => Donation[]) creatorAddressDonationsMap;\n    mapping(address => mapping(address => uint256)) amountCreatorGotFromUsersMap;\n    mapping(address => User[]) creatorAddressToUsers;\n\n    mapping(address => User) userAddressUserMap;\n    mapping(address => bool) userExists;\n\n    mapping(address => Creator) creatorAddressCreatorMap;\n    address[] creatorAddresses;\n\n    mapping(address => bool) creatorExists;\n\n    // Balances\n    mapping(address => uint256) creatorAddressBalanceMap;\n\n    function getAllCreators() public view returns (Creator[] memory) {\n        Creator[] memory creators = new Creator[](creatorAddresses.length);\n        for (uint256 i = 0; i < creatorAddresses.length; i++) {\n            creators[i] = creatorAddressCreatorMap[creatorAddresses[i]];\n        }\n        return creators;\n    }\n\n    function getCreatorDonors(address creatorAddress)\n        public\n        view\n        returns (User[] memory)\n    {\n        User[] memory users = new User[](\n            creatorAddressToUsers[creatorAddress].length\n        );\n        for (\n            uint256 i = 0;\n            i < creatorAddressToUsers[creatorAddress].length;\n            i++\n        ) {\n            users[i] = creatorAddressToUsers[creatorAddress][i];\n        }\n        return users;\n    }\n\n    function getUserCreators(address userAddress)\n        public\n        view\n        returns (Creator[] memory)\n    {\n        Creator[] memory creators = new Creator[](\n            userAddressToCreators[userAddress].length\n        );\n        for (\n            uint256 i = 0;\n            i < userAddressToCreators[userAddress].length;\n            i++\n        ) {\n            creators[i] = userAddressToCreators[userAddress][i];\n        }\n        return creators;\n    }\n\n    function createCreator(\n        string memory _name,\n        string memory _email,\n        string memory _website,\n        string memory _socialMedia,\n        string memory _photo\n    ) public returns (bool) {\n        if (creatorExists[msg.sender]) {\n            return false;\n        }\n        Creator memory newCreator;\n        newCreator.creator = msg.sender;\n        newCreator.name = _name;\n        newCreator.email = _email;\n        newCreator.website = _website;\n        newCreator.socialMedia = _socialMedia;\n        newCreator.photo = _photo;\n        creatorAddressCreatorMap[msg.sender] = newCreator;\n        creatorExists[msg.sender] = true;\n        creatorAddresses.push(msg.sender);\n\n        if (userExists[msg.sender]) {\n            userAddressUserMap[msg.sender].isCreator = true;\n        } else {\n            User memory newUser;\n            newUser.name = _name;\n            newUser.user = msg.sender;\n            newUser.isCreator = true;\n            userAddressUserMap[msg.sender] = newUser;\n            userExists[msg.sender] = true;\n        }\n        return true;\n    }\n\n    function createUser(string memory _name) public returns (bool) {\n        if (userExists[msg.sender]) {\n            return false;\n        }\n        User memory newUser;\n        newUser.name = _name;\n        newUser.user = msg.sender;\n        newUser.isCreator = false;\n        userAddressUserMap[msg.sender] = newUser;\n        userExists[msg.sender] = true;\n        return true;\n    }\n\n    function donate(address payable _to) public payable {\n        if (!userExists[msg.sender]) {\n            return;\n        }\n        if (!creatorExists[_to]) {\n            return;\n        }\n        // First Transfer the amount\n        _to.transfer(msg.value);\n        creatorAddressBalanceMap[_to] += msg.value;\n        // updating user has donated to creator\n        amountUserDonatedToCreatorMap[msg.sender][_to] += msg.value;\n        // updating creator has received from user\n        amountCreatorGotFromUsersMap[_to][msg.sender] += msg.value;\n\n        userAddressToCreators[msg.sender].push(creatorAddressCreatorMap[_to]);\n        creatorAddressToUsers[_to].push(userAddressUserMap[msg.sender]);\n\n        // updating user's donation history\n        Donation memory newDonation;\n        newDonation.to = _to;\n        newDonation.from = msg.sender;\n        newDonation.amount = msg.value;\n        newDonation.timestamp = block.timestamp;\n\n        userAddressDonationsMap[msg.sender].push(newDonation);\n        creatorAddressDonationsMap[_to].push(newDonation);\n    }\n}\n",
  "sourcePath": "/Users/pavan/Desktop/hackathon/smart-contracts/contracts/Tip.sol",
  "compiler": {
    "name": "solc",
    "version": "0.8.15+commit.e14f2714.Emscripten.clang"
  },
  "schemaVersion": "3.4.8",
  "updatedAt": "2022-07-23T18:00:26.789Z",
  "devdoc": {
    "kind": "dev",
    "methods": {},
    "version": 1
  },
  "userdoc": {
    "kind": "user",
    "methods": {},
    "notice": "Create a donation application where users can donate cryptocurrency to their favourite content creators(test cryptocurrency is fine) . Create separate login and dashboard pages for content creators to update their information like photo, email id, website link and social media ids. Users of content creators should have the ability to login to the portal and browse among existing content creators according to their choice. Users should be able to send cryptocurrency(Neo/Ether/BTC,etc.) to the content creator after choosing one from existing content creators. User Analytics and Creator Analytics should be included in a separate page. Logged in User can see only his personal analytics(ie. How much he has donated to which creator) Creator Analytics should only be visible to creators which will include details regarding donation received from individual users If an entity is both a creator and a user, then he shall be able to see both creator analytics and user analytics. ",
    "version": 1
  }
}